{
  "contractName": "DominionDAO",
  "abi": [
    {
      "anonymous": false,
      "inputs": [
        {
          "indexed": true,
          "internalType": "address",
          "name": "initiator",
          "type": "address"
        },
        {
          "indexed": false,
          "internalType": "bytes32",
          "name": "role",
          "type": "bytes32"
        },
        {
          "indexed": false,
          "internalType": "string",
          "name": "message",
          "type": "string"
        }
      ],
      "name": "Action",
      "type": "event"
    },
    {
      "anonymous": false,
      "inputs": [
        {
          "indexed": true,
          "internalType": "bytes32",
          "name": "role",
          "type": "bytes32"
        },
        {
          "indexed": true,
          "internalType": "bytes32",
          "name": "previousAdminRole",
          "type": "bytes32"
        },
        {
          "indexed": true,
          "internalType": "bytes32",
          "name": "newAdminRole",
          "type": "bytes32"
        }
      ],
      "name": "RoleAdminChanged",
      "type": "event"
    },
    {
      "anonymous": false,
      "inputs": [
        {
          "indexed": true,
          "internalType": "bytes32",
          "name": "role",
          "type": "bytes32"
        },
        {
          "indexed": true,
          "internalType": "address",
          "name": "account",
          "type": "address"
        },
        {
          "indexed": true,
          "internalType": "address",
          "name": "sender",
          "type": "address"
        }
      ],
      "name": "RoleGranted",
      "type": "event"
    },
    {
      "anonymous": false,
      "inputs": [
        {
          "indexed": true,
          "internalType": "bytes32",
          "name": "role",
          "type": "bytes32"
        },
        {
          "indexed": true,
          "internalType": "address",
          "name": "account",
          "type": "address"
        },
        {
          "indexed": true,
          "internalType": "address",
          "name": "sender",
          "type": "address"
        }
      ],
      "name": "RoleRevoked",
      "type": "event"
    },
    {
      "inputs": [],
      "name": "CONTRIBUTOR_ROLE",
      "outputs": [
        {
          "internalType": "bytes32",
          "name": "",
          "type": "bytes32"
        }
      ],
      "stateMutability": "view",
      "type": "function",
      "constant": true
    },
    {
      "inputs": [],
      "name": "DEFAULT_ADMIN_ROLE",
      "outputs": [
        {
          "internalType": "bytes32",
          "name": "",
          "type": "bytes32"
        }
      ],
      "stateMutability": "view",
      "type": "function",
      "constant": true
    },
    {
      "inputs": [],
      "name": "STAKEHOLDER_ROLE",
      "outputs": [
        {
          "internalType": "bytes32",
          "name": "",
          "type": "bytes32"
        }
      ],
      "stateMutability": "view",
      "type": "function",
      "constant": true
    },
    {
      "inputs": [
        {
          "internalType": "address",
          "name": "",
          "type": "address"
        }
      ],
      "name": "contributors",
      "outputs": [
        {
          "internalType": "uint256",
          "name": "",
          "type": "uint256"
        }
      ],
      "stateMutability": "view",
      "type": "function",
      "constant": true
    },
    {
      "inputs": [],
      "name": "daoBalance",
      "outputs": [
        {
          "internalType": "uint256",
          "name": "",
          "type": "uint256"
        }
      ],
      "stateMutability": "view",
      "type": "function",
      "constant": true
    },
    {
      "inputs": [
        {
          "internalType": "bytes32",
          "name": "role",
          "type": "bytes32"
        }
      ],
      "name": "getRoleAdmin",
      "outputs": [
        {
          "internalType": "bytes32",
          "name": "",
          "type": "bytes32"
        }
      ],
      "stateMutability": "view",
      "type": "function",
      "constant": true
    },
    {
      "inputs": [
        {
          "internalType": "bytes32",
          "name": "role",
          "type": "bytes32"
        },
        {
          "internalType": "address",
          "name": "account",
          "type": "address"
        }
      ],
      "name": "grantRole",
      "outputs": [],
      "stateMutability": "nonpayable",
      "type": "function"
    },
    {
      "inputs": [
        {
          "internalType": "bytes32",
          "name": "role",
          "type": "bytes32"
        },
        {
          "internalType": "address",
          "name": "account",
          "type": "address"
        }
      ],
      "name": "hasRole",
      "outputs": [
        {
          "internalType": "bool",
          "name": "",
          "type": "bool"
        }
      ],
      "stateMutability": "view",
      "type": "function",
      "constant": true
    },
    {
      "inputs": [],
      "name": "maxper",
      "outputs": [
        {
          "internalType": "uint256",
          "name": "",
          "type": "uint256"
        }
      ],
      "stateMutability": "view",
      "type": "function",
      "constant": true
    },
    {
      "inputs": [],
      "name": "mintedmax",
      "outputs": [
        {
          "internalType": "uint256",
          "name": "",
          "type": "uint256"
        }
      ],
      "stateMutability": "view",
      "type": "function",
      "constant": true
    },
    {
      "inputs": [
        {
          "internalType": "bytes32",
          "name": "role",
          "type": "bytes32"
        },
        {
          "internalType": "address",
          "name": "account",
          "type": "address"
        }
      ],
      "name": "renounceRole",
      "outputs": [],
      "stateMutability": "nonpayable",
      "type": "function"
    },
    {
      "inputs": [
        {
          "internalType": "bytes32",
          "name": "role",
          "type": "bytes32"
        },
        {
          "internalType": "address",
          "name": "account",
          "type": "address"
        }
      ],
      "name": "revokeRole",
      "outputs": [],
      "stateMutability": "nonpayable",
      "type": "function"
    },
    {
      "inputs": [],
      "name": "stakeNum",
      "outputs": [
        {
          "internalType": "uint256",
          "name": "",
          "type": "uint256"
        }
      ],
      "stateMutability": "view",
      "type": "function",
      "constant": true
    },
    {
      "inputs": [
        {
          "internalType": "address",
          "name": "",
          "type": "address"
        }
      ],
      "name": "stakeholders",
      "outputs": [
        {
          "internalType": "uint256",
          "name": "",
          "type": "uint256"
        }
      ],
      "stateMutability": "view",
      "type": "function",
      "constant": true
    },
    {
      "inputs": [
        {
          "internalType": "bytes4",
          "name": "interfaceId",
          "type": "bytes4"
        }
      ],
      "name": "supportsInterface",
      "outputs": [
        {
          "internalType": "bool",
          "name": "",
          "type": "bool"
        }
      ],
      "stateMutability": "view",
      "type": "function",
      "constant": true
    },
    {
      "inputs": [
        {
          "internalType": "string",
          "name": "title",
          "type": "string"
        },
        {
          "internalType": "string",
          "name": "description",
          "type": "string"
        }
      ],
      "name": "createProposal",
      "outputs": [
        {
          "components": [
            {
              "internalType": "uint256",
              "name": "id",
              "type": "uint256"
            },
            {
              "internalType": "uint256",
              "name": "duration",
              "type": "uint256"
            },
            {
              "internalType": "uint256",
              "name": "upvotes",
              "type": "uint256"
            },
            {
              "internalType": "uint256",
              "name": "downvotes",
              "type": "uint256"
            },
            {
              "internalType": "string",
              "name": "title",
              "type": "string"
            },
            {
              "internalType": "string",
              "name": "description",
              "type": "string"
            },
            {
              "internalType": "bool",
              "name": "passed",
              "type": "bool"
            },
            {
              "internalType": "address",
              "name": "proposer",
              "type": "address"
            },
            {
              "internalType": "address",
              "name": "executor",
              "type": "address"
            }
          ],
          "internalType": "struct DominionDAO.ProposalStruct",
          "name": "",
          "type": "tuple"
        }
      ],
      "stateMutability": "nonpayable",
      "type": "function"
    },
    {
      "inputs": [
        {
          "internalType": "uint256",
          "name": "proposalId",
          "type": "uint256"
        },
        {
          "internalType": "bool",
          "name": "choosen",
          "type": "bool"
        }
      ],
      "name": "performVote",
      "outputs": [
        {
          "components": [
            {
              "internalType": "address",
              "name": "voter",
              "type": "address"
            },
            {
              "internalType": "uint256",
              "name": "timestamp",
              "type": "uint256"
            },
            {
              "internalType": "bool",
              "name": "choosen",
              "type": "bool"
            }
          ],
          "internalType": "struct DominionDAO.VotedStruct",
          "name": "",
          "type": "tuple"
        }
      ],
      "stateMutability": "nonpayable",
      "type": "function"
    },
    {
      "inputs": [],
      "name": "contribute",
      "outputs": [
        {
          "internalType": "uint256",
          "name": "",
          "type": "uint256"
        }
      ],
      "stateMutability": "payable",
      "type": "function",
      "payable": true
    },
    {
      "inputs": [],
      "name": "getProposals",
      "outputs": [
        {
          "components": [
            {
              "internalType": "uint256",
              "name": "id",
              "type": "uint256"
            },
            {
              "internalType": "uint256",
              "name": "duration",
              "type": "uint256"
            },
            {
              "internalType": "uint256",
              "name": "upvotes",
              "type": "uint256"
            },
            {
              "internalType": "uint256",
              "name": "downvotes",
              "type": "uint256"
            },
            {
              "internalType": "string",
              "name": "title",
              "type": "string"
            },
            {
              "internalType": "string",
              "name": "description",
              "type": "string"
            },
            {
              "internalType": "bool",
              "name": "passed",
              "type": "bool"
            },
            {
              "internalType": "address",
              "name": "proposer",
              "type": "address"
            },
            {
              "internalType": "address",
              "name": "executor",
              "type": "address"
            }
          ],
          "internalType": "struct DominionDAO.ProposalStruct[]",
          "name": "props",
          "type": "tuple[]"
        }
      ],
      "stateMutability": "view",
      "type": "function",
      "constant": true
    },
    {
      "inputs": [
        {
          "internalType": "uint256",
          "name": "proposalId",
          "type": "uint256"
        }
      ],
      "name": "getProposal",
      "outputs": [
        {
          "components": [
            {
              "internalType": "uint256",
              "name": "id",
              "type": "uint256"
            },
            {
              "internalType": "uint256",
              "name": "duration",
              "type": "uint256"
            },
            {
              "internalType": "uint256",
              "name": "upvotes",
              "type": "uint256"
            },
            {
              "internalType": "uint256",
              "name": "downvotes",
              "type": "uint256"
            },
            {
              "internalType": "string",
              "name": "title",
              "type": "string"
            },
            {
              "internalType": "string",
              "name": "description",
              "type": "string"
            },
            {
              "internalType": "bool",
              "name": "passed",
              "type": "bool"
            },
            {
              "internalType": "address",
              "name": "proposer",
              "type": "address"
            },
            {
              "internalType": "address",
              "name": "executor",
              "type": "address"
            }
          ],
          "internalType": "struct DominionDAO.ProposalStruct",
          "name": "",
          "type": "tuple"
        }
      ],
      "stateMutability": "view",
      "type": "function",
      "constant": true
    },
    {
      "inputs": [
        {
          "internalType": "uint256",
          "name": "proposalId",
          "type": "uint256"
        }
      ],
      "name": "getVotesOf",
      "outputs": [
        {
          "components": [
            {
              "internalType": "address",
              "name": "voter",
              "type": "address"
            },
            {
              "internalType": "uint256",
              "name": "timestamp",
              "type": "uint256"
            },
            {
              "internalType": "bool",
              "name": "choosen",
              "type": "bool"
            }
          ],
          "internalType": "struct DominionDAO.VotedStruct[]",
          "name": "",
          "type": "tuple[]"
        }
      ],
      "stateMutability": "view",
      "type": "function",
      "constant": true
    },
    {
      "inputs": [],
      "name": "getStakeholderVotes",
      "outputs": [
        {
          "internalType": "uint256[]",
          "name": "",
          "type": "uint256[]"
        }
      ],
      "stateMutability": "view",
      "type": "function",
      "constant": true
    },
    {
      "inputs": [],
      "name": "getStakeholderBalance",
      "outputs": [
        {
          "internalType": "uint256",
          "name": "",
          "type": "uint256"
        }
      ],
      "stateMutability": "view",
      "type": "function",
      "constant": true
    },
    {
      "inputs": [],
      "name": "isStakeholder",
      "outputs": [
        {
          "internalType": "bool",
          "name": "",
          "type": "bool"
        }
      ],
      "stateMutability": "view",
      "type": "function",
      "constant": true
    },
    {
      "inputs": [],
      "name": "getContributorBalance",
      "outputs": [
        {
          "internalType": "uint256",
          "name": "",
          "type": "uint256"
        }
      ],
      "stateMutability": "view",
      "type": "function",
      "constant": true
    },
    {
      "inputs": [],
      "name": "isContributor",
      "outputs": [
        {
          "internalType": "bool",
          "name": "",
          "type": "bool"
        }
      ],
      "stateMutability": "view",
      "type": "function",
      "constant": true
    },
    {
      "inputs": [],
      "name": "getBalance",
      "outputs": [
        {
          "internalType": "uint256",
          "name": "",
          "type": "uint256"
        }
      ],
      "stateMutability": "view",
      "type": "function",
      "constant": true
    }
  ],
  "bytecode": "0x6101006040527fa0bb1af1c90aa52ed052b92714ff0087008cc720049bf1af77cca2600b31e80c6080527ff4bb84e1768dd286358a736d195a0b228621173f655a73b89bf8b191ed0ba07d60a052674563918244f4000060c05261025860e05234801561006b57600080fd5b50600160005560805160a05160c05160e0516120ee61010560003960006109b9015260006113c701526000818161028c0152818161090a01528181610cd601528181610d9901528181610e96015281816110380152818161137f0152818161142301526115590152600081816105150152818161065201528181610a11015281816112e50152818161144d01526114a101526120ee6000f3fe60806040526004361061019c5760003560e01c806391d14854116100ec578063c7f758a81161008a578063d7bb99ba11610064578063d7bb99ba146104e5578063e5743bc8146104ed578063eafb79e214610503578063f687b6d91461053757600080fd5b8063c7f758a814610481578063d547741f146104a1578063d6cc8016146104c157600080fd5b8063b31f111c116100c6578063b31f111c146103ed578063bd9728161461041a578063c02146ac14610430578063c07cfca91461045457600080fd5b806391d1485414610396578063a217fddf146103b6578063a22f1db7146103cb57600080fd5b80632f2ff15d1161015957806362564c481161013357806362564c481461030557806365e481e21461032757806369a136dc146103545780636a80d84d1461038157600080fd5b80632f2ff15d146102ae57806336568abe146102d05780633cdb48c2146102f057600080fd5b806301ffc9a7146101a15780631154e4a0146101d657806312065fe0146101fa5780631f6d49421461021c578063248a9ca3146102495780632b7fac731461027a575b600080fd5b3480156101ad57600080fd5b506101c16101bc366004611aff565b61054d565b60405190151581526020015b60405180910390f35b3480156101e257600080fd5b506101ec60055481565b6040519081526020016101cd565b34801561020657600080fd5b50336000908152600a60205260409020546101ec565b34801561022857600080fd5b506101ec610237366004611b45565b600a6020526000908152604090205481565b34801561025557600080fd5b506101ec610264366004611b60565b6000908152600160208190526040909120015490565b34801561028657600080fd5b506101ec7f000000000000000000000000000000000000000000000000000000000000000081565b3480156102ba57600080fd5b506102ce6102c9366004611b79565b610584565b005b3480156102dc57600080fd5b506102ce6102eb366004611b79565b6105af565b3480156102fc57600080fd5b506101ec610632565b34801561031157600080fd5b5061031a6106ae565b6040516101cd9190611ca8565b34801561033357600080fd5b50610347610342366004611d53565b6108e4565b6040516101cd9190611dbf565b34801561036057600080fd5b5061037461036f366004611b60565b610bff565b6040516101cd9190611dd2565b34801561038d57600080fd5b506101ec610c99565b3480156103a257600080fd5b506101c16103b1366004611b79565b610d31565b3480156103c257600080fd5b506101ec600081565b3480156103d757600080fd5b506103e0610d5c565b6040516101cd9190611e3f565b3480156103f957600080fd5b5061040d610408366004611e77565b610e3e565b6040516101cd9190611eac565b34801561042657600080fd5b506101ec60035481565b34801561043c57600080fd5b50336000908152600b602052604090205415156101c1565b34801561046057600080fd5b506101ec61046f366004611b45565b600b6020526000908152604090205481565b34801561048d57600080fd5b5061034761049c366004611b60565b6110ae565b3480156104ad57600080fd5b506102ce6104bc366004611b79565b61125a565b3480156104cd57600080fd5b50336000908152600a602052604090205415156101c1565b6101ec611280565b3480156104f957600080fd5b506101ec60045481565b34801561050f57600080fd5b506101ec7f000000000000000000000000000000000000000000000000000000000000000081565b34801561054357600080fd5b506101ec60065481565b60006001600160e01b03198216637965db0b60e01b148061057e57506301ffc9a760e01b6001600160e01b03198316145b92915050565b600082815260016020819052604090912001546105a0816115bc565b6105aa83836115c9565b505050565b6001600160a01b03811633146106245760405162461bcd60e51b815260206004820152602f60248201527f416363657373436f6e74726f6c3a2063616e206f6e6c792072656e6f756e636560448201526e103937b632b9903337b91039b2b63360891b60648201526084015b60405180910390fd5b61062e8282611634565b5050565b6000604051806060016040528060218152602001612069602191396106777f000000000000000000000000000000000000000000000000000000000000000033610d31565b81906106965760405162461bcd60e51b815260040161061b9190611ed8565b50336000908152600a602052604090205491505b5090565b606060025467ffffffffffffffff8111156106cb576106cb611eeb565b60405190808252806020026020018201604052801561070457816020015b6106f1611a0f565b8152602001906001900390816106e95790505b50905060005b6002548110156106aa5760076000828152602001908152602001600020604051806101200160405290816000820154815260200160018201548152602001600282015481526020016003820154815260200160048201805461076b90611f01565b80601f016020809104026020016040519081016040528092919081815260200182805461079790611f01565b80156107e45780601f106107b9576101008083540402835291602001916107e4565b820191906000526020600020905b8154815290600101906020018083116107c757829003601f168201915b505050505081526020016005820180546107fd90611f01565b80601f016020809104026020016040519081016040528092919081815260200182805461082990611f01565b80156108765780601f1061084b57610100808354040283529160200191610876565b820191906000526020600020905b81548152906001019060200180831161085957829003601f168201915b5050509183525050600682015460ff8116151560208301526001600160a01b036101009091048116604083015260079092015490911660609091015282518390839081106108c6576108c6611f3c565b602002602001018190525080806108dc90611f68565b91505061070a565b6108ec611a0f565b6040518060600160405280602f815260200161208a602f913961092f7f000000000000000000000000000000000000000000000000000000000000000033610d31565b819061094e5760405162461bcd60e51b815260040161061b9190611ed8565b50600280546000918261096083611f68565b909155506000818152600760205260409020818155600681018054610100600160a81b031916336101000217905590915061099f600482018989611a6f565b506109ae600582018787611a6f565b506109df63ffffffff7f00000000000000000000000000000000000000000000000000000000000000001642611f83565b600182015560405133907ff4195914bd1a75ff318a3e75d2111a80cc0a9a8375aea50e407aec30082ea0e390610a5f907f00000000000000000000000000000000000000000000000000000000000000008152604060208201819052600f908201526e141493d413d4d0530814905254d151608a1b606082015260800190565b60405180910390a2806040518061012001604052908160008201548152602001600182015481526020016002820154815260200160038201548152602001600482018054610aac90611f01565b80601f0160208091040260200160405190810160405280929190818152602001828054610ad890611f01565b8015610b255780601f10610afa57610100808354040283529160200191610b25565b820191906000526020600020905b815481529060010190602001808311610b0857829003601f168201915b50505050508152602001600582018054610b3e90611f01565b80601f0160208091040260200160405190810160405280929190818152602001828054610b6a90611f01565b8015610bb75780601f10610b8c57610100808354040283529160200191610bb7565b820191906000526020600020905b815481529060010190602001808311610b9a57829003601f168201915b5050509183525050600682015460ff81161515602083015261010090046001600160a01b03908116604083015260079092015490911660609091015298975050505050505050565b606060096000838152602001908152602001600020805480602002602001604051908101604052809291908181526020016000905b82821015610c8e576000848152602090819020604080516060810182526003860290920180546001600160a01b031683526001808201548486015260029091015460ff161515918301919091529083529092019101610c34565b505050509050919050565b60006040518060400160405280601f81526020017f556e617574686f72697a65643a206e6f742061207374616b65686f6c64657200815250610cfb7f000000000000000000000000000000000000000000000000000000000000000033610d31565b8190610d1a5760405162461bcd60e51b815260040161061b9190611ed8565b50336000908152600b602052604090205491505090565b60009182526001602090815260408084206001600160a01b0393909316845291905290205460ff1690565b60606040518060400160405280601f81526020017f556e617574686f72697a65643a206e6f742061207374616b65686f6c64657200815250610dbe7f000000000000000000000000000000000000000000000000000000000000000033610d31565b8190610ddd5760405162461bcd60e51b815260040161061b9190611ed8565b503360009081526008602090815260409182902080548351818402810184019094528084529091830182828015610e3357602002820191906000526020600020905b815481526020019060010190808311610e1f575b505050505091505090565b60408051606081018252600080825260208201819052918101919091526040518060400160405280601f81526020017f556e617574686f72697a65643a205374616b65686f6c64657273206f6e6c7900815250610ebb7f000000000000000000000000000000000000000000000000000000000000000033610d31565b8190610eda5760405162461bcd60e51b815260040161061b9190611ed8565b506000848152600760205260409020610ef28161169b565b8315610f3657336000908152600b6020526040902054610f18906402540be40090611f9b565b816002016000828254610f2b9190611f83565b90915550610f6f9050565b336000908152600b6020526040902054610f56906402540be40090611f9b565b816003016000828254610f699190611f83565b90915550505b3360008181526008602090815260408083208554815460018181018455928652848620015585548452600983528184208251606081018452868152428186019081528b15158286019081528354808601855593885295909620905160039092020180546001600160a01b03929092166001600160a01b031990921691909117815593519084015590516002909201805492151560ff1990931692909217909155517ff4195914bd1a75ff318a3e75d2111a80cc0a9a8375aea50e407aec30082ea0e390611084907f00000000000000000000000000000000000000000000000000000000000000008152604060208201819052600d908201526c50524f504f53414c20564f544560981b606082015260800190565b60405180910390a25050604080516060810182523381524260208201529215159083015250919050565b6110b6611a0f565b60076000838152602001908152602001600020604051806101200160405290816000820154815260200160018201548152602001600282015481526020016003820154815260200160048201805461110d90611f01565b80601f016020809104026020016040519081016040528092919081815260200182805461113990611f01565b80156111865780601f1061115b57610100808354040283529160200191611186565b820191906000526020600020905b81548152906001019060200180831161116957829003601f168201915b5050505050815260200160058201805461119f90611f01565b80601f01602080910402602001604051908101604052809291908181526020018280546111cb90611f01565b80156112185780601f106111ed57610100808354040283529160200191611218565b820191906000526020600020905b8154815290600101906020018083116111fb57829003601f168201915b5050509183525050600682015460ff8116151560208301526001600160a01b036101009091048116604083015260079092015490911660609091015292915050565b60008281526001602081905260409091200154611276816115bc565b6105aa8383611634565b60008034116112db5760405162461bcd60e51b815260206004820152602160248201527f436f6e747269627574696e67207a65726f206973206e6f7420616c6c6f7765646044820152601760f91b606482015260840161061b565b601e60065561130a7f000000000000000000000000000000000000000000000000000000000000000033610d31565b1561137a57600654336000908152600a602052604090205461132c9034611f83565b111561137a5760405162461bcd60e51b815260206004820152601860248201527f436f6e747269627574696f6e206e6f7420616c6c6f7765640000000000000000604482015260640161061b565b6113a47f000000000000000000000000000000000000000000000000000000000000000033610d31565b6114cc57336000908152600a60205260408120546113c3903490611f83565b90507f0000000000000000000000000000000000000000000000000000000000000000811061147757336000908152600b60209081526040808320849055600a90915281208054349290611418908490611f83565b9091555061144890507f0000000000000000000000000000000000000000000000000000000000000000336117f7565b6114727f0000000000000000000000000000000000000000000000000000000000000000336117f7565b6114c6565b336000908152600a602052604081208054349290611496908490611f83565b909155506114c690507f0000000000000000000000000000000000000000000000000000000000000000336117f7565b50611515565b336000908152600a6020526040812080543492906114eb908490611f83565b9091555050336000908152600b60205260408120805434929061150f908490611f83565b90915550505b34600360008282546115279190611f83565b909155505060405133907ff4195914bd1a75ff318a3e75d2111a80cc0a9a8375aea50e407aec30082ea0e3906115ad907f000000000000000000000000000000000000000000000000000000000000000081526040602082018190526015908201527410d3d39514925095551253d388149150d152559151605a1b606082015260800190565b60405180910390a25060035490565b6115c68133611801565b50565b6115d38282610d31565b61062e5760008281526001602081815260408084206001600160a01b0386168086529252808420805460ff19169093179092559051339285917f2f8788117e7eff1d82e926ec794901d17c78024a50270940304540a733656f0d9190a45050565b61163e8282610d31565b1561062e5760008281526001602090815260408083206001600160a01b0385168085529252808320805460ff1916905551339285917ff6391f5c32d9c69d2a47ea670b442974b53935d1edc7fd64eb21e047a839171b9190a45050565b600681015460ff16806116b2575042816001015411155b1561170e5760068101805460ff1916600117905560405162461bcd60e51b815260206004820152601960248201527f50726f706f73616c206475726174696f6e206578706972656400000000000000604482015260640161061b565b3360009081526008602090815260408083208054825181850281018501909352808352919290919083018282801561176557602002820191906000526020600020905b815481526020019060010190808311611751575b5050505050905060005b81518110156105aa5781818151811061178a5761178a611f3c565b6020026020010151836000015414156117e55760405162461bcd60e51b815260206004820152601960248201527f446f75626c6520766f74696e67206e6f7420616c6c6f77656400000000000000604482015260640161061b565b806117ef81611f68565b91505061176f565b61062e82826115c9565b61180b8282610d31565b61062e576118188161185a565b61182383602061186c565b604051602001611834929190611fbd565b60408051601f198184030181529082905262461bcd60e51b825261061b91600401611ed8565b606061057e6001600160a01b03831660145b6060600061187b836002612032565b611886906002611f83565b67ffffffffffffffff81111561189e5761189e611eeb565b6040519080825280601f01601f1916602001820160405280156118c8576020820181803683370190505b509050600360fc1b816000815181106118e3576118e3611f3c565b60200101906001600160f81b031916908160001a905350600f60fb1b8160018151811061191257611912611f3c565b60200101906001600160f81b031916908160001a9053506000611936846002612032565b611941906001611f83565b90505b60018111156119b9576f181899199a1a9b1b9c1cb0b131b232b360811b85600f166010811061197557611975611f3c565b1a60f81b82828151811061198b5761198b611f3c565b60200101906001600160f81b031916908160001a90535060049490941c936119b281612051565b9050611944565b508315611a085760405162461bcd60e51b815260206004820181905260248201527f537472696e67733a20686578206c656e67746820696e73756666696369656e74604482015260640161061b565b9392505050565b60405180610120016040528060008152602001600081526020016000815260200160008152602001606081526020016060815260200160001515815260200160006001600160a01b0316815260200160006001600160a01b031681525090565b828054611a7b90611f01565b90600052602060002090601f016020900481019282611a9d5760008555611ae3565b82601f10611ab65782800160ff19823516178555611ae3565b82800160010185558215611ae3579182015b82811115611ae3578235825591602001919060010190611ac8565b506106aa9291505b808211156106aa5760008155600101611aeb565b600060208284031215611b1157600080fd5b81356001600160e01b031981168114611a0857600080fd5b80356001600160a01b0381168114611b4057600080fd5b919050565b600060208284031215611b5757600080fd5b611a0882611b29565b600060208284031215611b7257600080fd5b5035919050565b60008060408385031215611b8c57600080fd5b82359150611b9c60208401611b29565b90509250929050565b60005b83811015611bc0578181015183820152602001611ba8565b83811115611bcf576000848401525b50505050565b60008151808452611bed816020860160208601611ba5565b601f01601f19169290920160200192915050565b6000610120825184526020830151602085015260408301516040850152606083015160608501526080830151816080860152611c3f82860182611bd5565b91505060a083015184820360a0860152611c598282611bd5565b91505060c0830151611c6f60c086018215159052565b5060e0830151611c8a60e08601826001600160a01b03169052565b50610100928301516001600160a01b03169390920192909252919050565b6000602080830181845280855180835260408601915060408160051b870101925083870160005b82811015611cfd57603f19888603018452611ceb858351611c01565b94509285019290850190600101611ccf565b5092979650505050505050565b60008083601f840112611d1c57600080fd5b50813567ffffffffffffffff811115611d3457600080fd5b602083019150836020828501011115611d4c57600080fd5b9250929050565b60008060008060408587031215611d6957600080fd5b843567ffffffffffffffff80821115611d8157600080fd5b611d8d88838901611d0a565b90965094506020870135915080821115611da657600080fd5b50611db387828801611d0a565b95989497509550505050565b602081526000611a086020830184611c01565b6020808252825182820181905260009190848201906040850190845b81811015611e3357611e2083855180516001600160a01b03168252602080820151908301526040908101511515910152565b9284019260609290920191600101611dee565b50909695505050505050565b6020808252825182820181905260009190848201906040850190845b81811015611e3357835183529284019291840191600101611e5b565b60008060408385031215611e8a57600080fd5b8235915060208301358015158114611ea157600080fd5b809150509250929050565b81516001600160a01b03168152602080830151908201526040808301511515908201526060810161057e565b602081526000611a086020830184611bd5565b634e487b7160e01b600052604160045260246000fd5b600181811c90821680611f1557607f821691505b60208210811415611f3657634e487b7160e01b600052602260045260246000fd5b50919050565b634e487b7160e01b600052603260045260246000fd5b634e487b7160e01b600052601160045260246000fd5b6000600019821415611f7c57611f7c611f52565b5060010190565b60008219821115611f9657611f96611f52565b500190565b600082611fb857634e487b7160e01b600052601260045260246000fd5b500490565b7f416363657373436f6e74726f6c3a206163636f756e7420000000000000000000815260008351611ff5816017850160208801611ba5565b7001034b99036b4b9b9b4b733903937b6329607d1b6017918401918201528351612026816028840160208801611ba5565b01602801949350505050565b600081600019048311821515161561204c5761204c611f52565b500290565b60008161206057612060611f52565b50600019019056fe44656e6965643a2055736572206973206e6f74206120636f6e7472696275746f7250726f706f73616c204372656174696f6e20416c6c6f77656420666f72205374616b65686f6c64657273206f6e6c79a2646970667358221220f7043c5c0aa422b9d43c4a5660100e84c9d2a9d7a21f512417bde7e56dc1dc5464736f6c634300080b0033",
  "immutableReferences": {
    "2014": [
      {
        "length": 32,
        "start": 1301
      },
      {
        "length": 32,
        "start": 1618
      },
      {
        "length": 32,
        "start": 2577
      },
      {
        "length": 32,
        "start": 4837
      },
      {
        "length": 32,
        "start": 5197
      },
      {
        "length": 32,
        "start": 5281
      }
    ],
    "2019": [
      {
        "length": 32,
        "start": 652
      },
      {
        "length": 32,
        "start": 2314
      },
      {
        "length": 32,
        "start": 3286
      },
      {
        "length": 32,
        "start": 3481
      },
      {
        "length": 32,
        "start": 3734
      },
      {
        "length": 32,
        "start": 4152
      },
      {
        "length": 32,
        "start": 4991
      },
      {
        "length": 32,
        "start": 5155
      },
      {
        "length": 32,
        "start": 5465
      }
    ],
    "2022": [
      {
        "length": 32,
        "start": 5063
      }
    ],
    "2025": [
      {
        "length": 32,
        "start": 2489
      }
    ]
  },
  "source": "// SPDX-License-Identifier: MIT\r\npragma solidity ^0.8.7;\r\n\r\nimport \"@openzeppelin/contracts/access/AccessControl.sol\";\r\nimport \"@openzeppelin/contracts/security/ReentrancyGuard.sol\";\r\n\r\ncontract DominionDAO is ReentrancyGuard, AccessControl {\r\n    bytes32 public immutable CONTRIBUTOR_ROLE = keccak256(\"CONTRIBUTOR\");\r\n    bytes32 public immutable STAKEHOLDER_ROLE = keccak256(\"STAKEHOLDER\");\r\n    uint256 immutable MIN_STAKEHOLDER_CONTRIBUTION = 5 ether;\r\n    // uint32 immutable MIN_VOTE_DURATION = 1 weeks;\r\n    uint32 immutable MIN_VOTE_DURATION = 10 minutes;\r\n    uint256 totalProposals;\r\n    uint256 public daoBalance;\r\n    uint256 public stakeNum;\r\n    uint256 public mintedmax;\r\n    uint256 public maxper;\r\n    mapping(uint256 => ProposalStruct) private raisedProposals;\r\n    mapping(address => uint256[]) private stakeholderVotes;\r\n    mapping(uint256 => VotedStruct[]) private votedOn;\r\n    mapping(address => uint256) public contributors;\r\n    mapping(address => uint256) public stakeholders;\r\n\r\n    struct ProposalStruct {\r\n        uint256 id;\r\n        uint256 duration;\r\n        uint256 upvotes;\r\n        uint256 downvotes;\r\n        string title;\r\n        string description;\r\n        bool passed;\r\n        address proposer;\r\n        address executor;\r\n    }\r\n\r\n    struct VotedStruct {\r\n        address voter;\r\n        uint256 timestamp;\r\n        bool choosen;\r\n    }\r\n\r\n    event Action(\r\n        address indexed initiator,\r\n        bytes32 role,\r\n        string message\r\n        \r\n        \r\n    );\r\n\r\n    modifier stakeholderOnly(string memory message) {\r\n        require(hasRole(STAKEHOLDER_ROLE, msg.sender), message);\r\n        _;\r\n    }\r\n    \r\n\r\n    modifier contributorOnly(string memory message) {\r\n        require(hasRole(CONTRIBUTOR_ROLE, msg.sender), message);\r\n        _;\r\n    }\r\n\r\n    function createProposal(\r\n        string calldata title,\r\n        string calldata description\r\n    )external\r\n     stakeholderOnly(\"Proposal Creation Allowed for Stakeholders only\")\r\n     returns (ProposalStruct memory)\r\n    {\r\n        uint256 proposalId = totalProposals++;\r\n        ProposalStruct storage proposal = raisedProposals[proposalId];\r\n\r\n        proposal.id = proposalId;\r\n        proposal.proposer = payable(msg.sender);\r\n        proposal.title = title;\r\n        proposal.description = description;\r\n        proposal.duration = block.timestamp + MIN_VOTE_DURATION;\r\n\r\n        emit Action(\r\n            msg.sender,\r\n            CONTRIBUTOR_ROLE,\r\n            \"PROPOSAL RAISED\"\r\n            \r\n        );\r\n\r\n        return proposal;\r\n    }\r\n\r\n    function performVote(uint256 proposalId, bool choosen)\r\n        external\r\n        stakeholderOnly(\"Unauthorized: Stakeholders only\")\r\n        returns (VotedStruct memory)\r\n    {\r\n        ProposalStruct storage proposal = raisedProposals[proposalId];\r\n\r\n        handleVoting(proposal);\r\n\r\n        // if(choosen)\r\n        // {\r\n        //     proposal.upvotes += (stakeholders[msg.sender]);\r\n        // }\r\n        // else \r\n        // {\r\n        //     proposal.downvotes += (stakeholders[msg.sender]);\r\n        // }\r\n\r\n        if(choosen)\r\n        {\r\n            proposal.upvotes += (stakeholders[msg.sender]/10000000000);\r\n        }\r\n        else \r\n        {\r\n            proposal.downvotes += (stakeholders[msg.sender]/10000000000);\r\n        }\r\n        stakeholderVotes[msg.sender].push(proposal.id);\r\n\r\n        votedOn[proposal.id].push(\r\n            VotedStruct(\r\n                msg.sender,\r\n                block.timestamp,\r\n                choosen\r\n            )\r\n        );\r\n\r\n        emit Action(\r\n            msg.sender,\r\n            STAKEHOLDER_ROLE,\r\n            \"PROPOSAL VOTE\"\r\n        );\r\n\r\n        return VotedStruct(\r\n                msg.sender,\r\n                block.timestamp,\r\n                choosen\r\n            );\r\n    }\r\n\r\n    function handleVoting(ProposalStruct storage proposal) private {\r\n        if (\r\n            proposal.passed ||\r\n            proposal.duration <= block.timestamp\r\n        ) {\r\n            proposal.passed = true;\r\n            revert(\"Proposal duration expired\");\r\n        }\r\n\r\n        uint256[] memory tempVotes = stakeholderVotes[msg.sender];\r\n        for (uint256 votes = 0; votes < tempVotes.length; votes++) {\r\n            if (proposal.id == tempVotes[votes])\r\n                revert(\"Double voting not allowed\");\r\n        }\r\n    }\r\n\r\n    // function payBeneficiary(uint256 proposalId)\r\n    //     external\r\n    //     stakeholderOnly(\"Unauthorized: Stakeholders only\")\r\n    //     nonReentrant()\r\n        \r\n    // {\r\n    //     ProposalStruct storage proposal = raisedProposals[proposalId];\r\n    //     // require(daoBalance >= proposal.amount, \"Insufficient fund\");\r\n\r\n    //     if (proposal.paid) revert(\"Payment sent before\");\r\n\r\n    //     if (proposal.upvotes <= proposal.downvotes)\r\n    //         revert(\"Insufficient votes\");\r\n\r\n    //     payTo(proposal.beneficiary, proposal.amount);\r\n\r\n    //     proposal.paid = true;\r\n    //     proposal.executor = msg.sender;\r\n    //     // daoBalance -= proposal.amount;\r\n\r\n    //     emit Action(\r\n    //         msg.sender,\r\n    //         STAKEHOLDER_ROLE,\r\n    //         \"PAYMENT TRANSFERED\",\r\n    //         proposal.beneficiary,\r\n    //         proposal.amount\r\n    //     );\r\n\r\n    //     // return daoBalance;\r\n    // }\r\n\r\n    function contribute() payable external returns (uint256) {\r\n        require(msg.value > 0 ether, \"Contributing zero is not allowed.\");\r\n        // maxper = (30 * mintedmax)/100;\r\n        maxper = 30;\r\n        if (hasRole(CONTRIBUTOR_ROLE, msg.sender)) {\r\n            if((msg.value + contributors[msg.sender]) > maxper)\r\n        {\r\n            revert(\"Contribution not allowed\");\r\n        }\r\n        }\r\n        \r\n        if (!hasRole(STAKEHOLDER_ROLE, msg.sender)) {\r\n            uint256 totalContribution =\r\n                contributors[msg.sender] + msg.value;\r\n\r\n            if (totalContribution >= MIN_STAKEHOLDER_CONTRIBUTION) {\r\n                stakeholders[msg.sender] = totalContribution;\r\n                contributors[msg.sender] += msg.value;\r\n                _setupRole(STAKEHOLDER_ROLE, msg.sender);\r\n                _setupRole(CONTRIBUTOR_ROLE, msg.sender);\r\n            } else {\r\n                contributors[msg.sender] += msg.value;\r\n                _setupRole(CONTRIBUTOR_ROLE, msg.sender);\r\n            }\r\n        } else {\r\n            contributors[msg.sender] += msg.value;\r\n            stakeholders[msg.sender] += msg.value;\r\n        }\r\n        \r\n        daoBalance += msg.value;\r\n\r\n        emit Action(\r\n            msg.sender,\r\n            STAKEHOLDER_ROLE,\r\n            \"CONTRIBUTION RECEIVED\"\r\n            // address(this),\r\n            // msg.value\r\n        );\r\n\r\n        return daoBalance;\r\n    }\r\n\r\n    function getProposals()\r\n        external\r\n        view\r\n        returns (ProposalStruct[] memory props)\r\n    {\r\n        props = new ProposalStruct[](totalProposals);\r\n\r\n        for (uint256 i = 0; i < totalProposals; i++) {\r\n            props[i] = raisedProposals[i];\r\n        }\r\n    }\r\n\r\n    function getProposal(uint256 proposalId)\r\n        external\r\n        view\r\n        returns (ProposalStruct memory)\r\n    {\r\n        return raisedProposals[proposalId];\r\n    }\r\n    \r\n    function getVotesOf(uint256 proposalId)\r\n        external\r\n        view\r\n        returns (VotedStruct[] memory)\r\n    {\r\n        return votedOn[proposalId];\r\n    }\r\n\r\n    function getStakeholderVotes()\r\n        external\r\n        view\r\n        stakeholderOnly(\"Unauthorized: not a stakeholder\")\r\n        returns (uint256[] memory)\r\n    {\r\n        return stakeholderVotes[msg.sender];\r\n    }\r\n\r\n    function getStakeholderBalance()\r\n        external\r\n        view\r\n        stakeholderOnly(\"Unauthorized: not a stakeholder\")\r\n        returns (uint256)\r\n    {\r\n        return stakeholders[msg.sender];\r\n    }\r\n\r\n    function isStakeholder() external view returns (bool) {\r\n        return stakeholders[msg.sender] > 0;\r\n    }\r\n\r\n    function getContributorBalance()\r\n        external\r\n        view\r\n        contributorOnly(\"Denied: User is not a contributor\")\r\n        returns (uint256)\r\n    {\r\n        return contributors[msg.sender];\r\n    }\r\n\r\n    function isContributor() external view returns (bool) {\r\n        return contributors[msg.sender] > 0;\r\n    }\r\n\r\n    function getBalance() external view returns (uint256) {\r\n        return contributors[msg.sender];\r\n    }\r\n\r\n    function payTo(\r\n        address to, \r\n        uint256 amount\r\n    ) internal returns (bool) {\r\n        (bool success,) = payable(to).call{value: amount}(\"\");\r\n        require(success, \"Payment failed\");\r\n        return true;\r\n    }\r\n}",
  "sourcePath": "/home/vivekpm/DAO_NFT/src/contracts/DominonDao.sol",
  "compiler": {
    "name": "solc",
    "version": "0.8.11+commit.d7f03943.Emscripten.clang"
  },
  "schemaVersion": "3.4.13",
  "updatedAt": "2023-05-20T07:17:47.907Z",
  "networkType": "ethereum",
  "devdoc": {
    "kind": "dev",
    "methods": {
      "getRoleAdmin(bytes32)": {
        "details": "Returns the admin role that controls `role`. See {grantRole} and {revokeRole}. To change a role's admin, use {_setRoleAdmin}."
      },
      "grantRole(bytes32,address)": {
        "details": "Grants `role` to `account`. If `account` had not been already granted `role`, emits a {RoleGranted} event. Requirements: - the caller must have ``role``'s admin role. May emit a {RoleGranted} event."
      },
      "hasRole(bytes32,address)": {
        "details": "Returns `true` if `account` has been granted `role`."
      },
      "renounceRole(bytes32,address)": {
        "details": "Revokes `role` from the calling account. Roles are often managed via {grantRole} and {revokeRole}: this function's purpose is to provide a mechanism for accounts to lose their privileges if they are compromised (such as when a trusted device is misplaced). If the calling account had been revoked `role`, emits a {RoleRevoked} event. Requirements: - the caller must be `account`. May emit a {RoleRevoked} event."
      },
      "revokeRole(bytes32,address)": {
        "details": "Revokes `role` from `account`. If `account` had been granted `role`, emits a {RoleRevoked} event. Requirements: - the caller must have ``role``'s admin role. May emit a {RoleRevoked} event."
      },
      "supportsInterface(bytes4)": {
        "details": "See {IERC165-supportsInterface}."
      }
    },
    "version": 1
  },
  "userdoc": {
    "kind": "user",
    "methods": {},
    "version": 1
  }
}