{
  "contractName": "TimelessNFT",
  "abi": [
    {
      "inputs": [
        {
          "internalType": "string",
          "name": "_name",
          "type": "string"
        },
        {
          "internalType": "string",
          "name": "_symbol",
          "type": "string"
        },
        {
          "internalType": "uint256",
          "name": "_royalityFee",
          "type": "uint256"
        },
        {
          "internalType": "address",
          "name": "_artist",
          "type": "address"
        }
      ],
      "stateMutability": "nonpayable",
      "type": "constructor"
    },
    {
      "anonymous": false,
      "inputs": [
        {
          "indexed": true,
          "internalType": "address",
          "name": "initiator",
          "type": "address"
        },
        {
          "indexed": false,
          "internalType": "bytes32",
          "name": "role",
          "type": "bytes32"
        },
        {
          "indexed": false,
          "internalType": "string",
          "name": "message",
          "type": "string"
        }
      ],
      "name": "Action",
      "type": "event"
    },
    {
      "anonymous": false,
      "inputs": [
        {
          "indexed": true,
          "internalType": "address",
          "name": "owner",
          "type": "address"
        },
        {
          "indexed": true,
          "internalType": "address",
          "name": "approved",
          "type": "address"
        },
        {
          "indexed": true,
          "internalType": "uint256",
          "name": "tokenId",
          "type": "uint256"
        }
      ],
      "name": "Approval",
      "type": "event"
    },
    {
      "anonymous": false,
      "inputs": [
        {
          "indexed": true,
          "internalType": "address",
          "name": "owner",
          "type": "address"
        },
        {
          "indexed": true,
          "internalType": "address",
          "name": "operator",
          "type": "address"
        },
        {
          "indexed": false,
          "internalType": "bool",
          "name": "approved",
          "type": "bool"
        }
      ],
      "name": "ApprovalForAll",
      "type": "event"
    },
    {
      "anonymous": false,
      "inputs": [
        {
          "indexed": true,
          "internalType": "address",
          "name": "previousOwner",
          "type": "address"
        },
        {
          "indexed": true,
          "internalType": "address",
          "name": "newOwner",
          "type": "address"
        }
      ],
      "name": "OwnershipTransferred",
      "type": "event"
    },
    {
      "anonymous": false,
      "inputs": [
        {
          "indexed": true,
          "internalType": "bytes32",
          "name": "role",
          "type": "bytes32"
        },
        {
          "indexed": true,
          "internalType": "bytes32",
          "name": "previousAdminRole",
          "type": "bytes32"
        },
        {
          "indexed": true,
          "internalType": "bytes32",
          "name": "newAdminRole",
          "type": "bytes32"
        }
      ],
      "name": "RoleAdminChanged",
      "type": "event"
    },
    {
      "anonymous": false,
      "inputs": [
        {
          "indexed": true,
          "internalType": "bytes32",
          "name": "role",
          "type": "bytes32"
        },
        {
          "indexed": true,
          "internalType": "address",
          "name": "account",
          "type": "address"
        },
        {
          "indexed": true,
          "internalType": "address",
          "name": "sender",
          "type": "address"
        }
      ],
      "name": "RoleGranted",
      "type": "event"
    },
    {
      "anonymous": false,
      "inputs": [
        {
          "indexed": true,
          "internalType": "bytes32",
          "name": "role",
          "type": "bytes32"
        },
        {
          "indexed": true,
          "internalType": "address",
          "name": "account",
          "type": "address"
        },
        {
          "indexed": true,
          "internalType": "address",
          "name": "sender",
          "type": "address"
        }
      ],
      "name": "RoleRevoked",
      "type": "event"
    },
    {
      "anonymous": false,
      "inputs": [
        {
          "indexed": false,
          "internalType": "uint256",
          "name": "id",
          "type": "uint256"
        },
        {
          "indexed": true,
          "internalType": "address",
          "name": "owner",
          "type": "address"
        },
        {
          "indexed": false,
          "internalType": "uint256",
          "name": "cost",
          "type": "uint256"
        },
        {
          "indexed": false,
          "internalType": "string",
          "name": "metadataURI",
          "type": "string"
        },
        {
          "indexed": false,
          "internalType": "uint256",
          "name": "timestamp",
          "type": "uint256"
        }
      ],
      "name": "Sale",
      "type": "event"
    },
    {
      "anonymous": false,
      "inputs": [
        {
          "indexed": true,
          "internalType": "address",
          "name": "from",
          "type": "address"
        },
        {
          "indexed": true,
          "internalType": "address",
          "name": "to",
          "type": "address"
        },
        {
          "indexed": true,
          "internalType": "uint256",
          "name": "tokenId",
          "type": "uint256"
        }
      ],
      "name": "Transfer",
      "type": "event"
    },
    {
      "inputs": [],
      "name": "CONTRIBUTOR_ROLE",
      "outputs": [
        {
          "internalType": "bytes32",
          "name": "",
          "type": "bytes32"
        }
      ],
      "stateMutability": "view",
      "type": "function",
      "constant": true
    },
    {
      "inputs": [],
      "name": "DEFAULT_ADMIN_ROLE",
      "outputs": [
        {
          "internalType": "bytes32",
          "name": "",
          "type": "bytes32"
        }
      ],
      "stateMutability": "view",
      "type": "function",
      "constant": true
    },
    {
      "inputs": [],
      "name": "STAKEHOLDER_ROLE",
      "outputs": [
        {
          "internalType": "bytes32",
          "name": "",
          "type": "bytes32"
        }
      ],
      "stateMutability": "view",
      "type": "function",
      "constant": true
    },
    {
      "inputs": [
        {
          "internalType": "address",
          "name": "to",
          "type": "address"
        },
        {
          "internalType": "uint256",
          "name": "tokenId",
          "type": "uint256"
        }
      ],
      "name": "approve",
      "outputs": [],
      "stateMutability": "nonpayable",
      "type": "function"
    },
    {
      "inputs": [],
      "name": "artist",
      "outputs": [
        {
          "internalType": "address",
          "name": "",
          "type": "address"
        }
      ],
      "stateMutability": "view",
      "type": "function",
      "constant": true
    },
    {
      "inputs": [
        {
          "internalType": "address",
          "name": "owner",
          "type": "address"
        }
      ],
      "name": "balanceOf",
      "outputs": [
        {
          "internalType": "uint256",
          "name": "",
          "type": "uint256"
        }
      ],
      "stateMutability": "view",
      "type": "function",
      "constant": true
    },
    {
      "inputs": [],
      "name": "contribute",
      "outputs": [
        {
          "internalType": "uint256",
          "name": "",
          "type": "uint256"
        }
      ],
      "stateMutability": "payable",
      "type": "function",
      "payable": true
    },
    {
      "inputs": [
        {
          "internalType": "address",
          "name": "",
          "type": "address"
        }
      ],
      "name": "contributors",
      "outputs": [
        {
          "internalType": "uint256",
          "name": "",
          "type": "uint256"
        }
      ],
      "stateMutability": "view",
      "type": "function",
      "constant": true
    },
    {
      "inputs": [],
      "name": "cost",
      "outputs": [
        {
          "internalType": "uint256",
          "name": "",
          "type": "uint256"
        }
      ],
      "stateMutability": "view",
      "type": "function",
      "constant": true
    },
    {
      "inputs": [
        {
          "internalType": "string",
          "name": "title",
          "type": "string"
        },
        {
          "internalType": "string",
          "name": "description",
          "type": "string"
        }
      ],
      "name": "createProposal",
      "outputs": [
        {
          "components": [
            {
              "internalType": "uint256",
              "name": "id",
              "type": "uint256"
            },
            {
              "internalType": "uint256",
              "name": "duration",
              "type": "uint256"
            },
            {
              "internalType": "uint256",
              "name": "upvotes",
              "type": "uint256"
            },
            {
              "internalType": "uint256",
              "name": "downvotes",
              "type": "uint256"
            },
            {
              "internalType": "string",
              "name": "title",
              "type": "string"
            },
            {
              "internalType": "string",
              "name": "description",
              "type": "string"
            },
            {
              "internalType": "bool",
              "name": "passed",
              "type": "bool"
            },
            {
              "internalType": "address",
              "name": "proposer",
              "type": "address"
            },
            {
              "internalType": "address",
              "name": "executor",
              "type": "address"
            }
          ],
          "internalType": "struct DominionDAO.ProposalStruct",
          "name": "",
          "type": "tuple"
        }
      ],
      "stateMutability": "nonpayable",
      "type": "function"
    },
    {
      "inputs": [],
      "name": "daoBalance",
      "outputs": [
        {
          "internalType": "uint256",
          "name": "",
          "type": "uint256"
        }
      ],
      "stateMutability": "view",
      "type": "function",
      "constant": true
    },
    {
      "inputs": [
        {
          "internalType": "uint256",
          "name": "tokenId",
          "type": "uint256"
        }
      ],
      "name": "getApproved",
      "outputs": [
        {
          "internalType": "address",
          "name": "",
          "type": "address"
        }
      ],
      "stateMutability": "view",
      "type": "function",
      "constant": true
    },
    {
      "inputs": [],
      "name": "getBalance",
      "outputs": [
        {
          "internalType": "uint256",
          "name": "",
          "type": "uint256"
        }
      ],
      "stateMutability": "view",
      "type": "function",
      "constant": true
    },
    {
      "inputs": [],
      "name": "getContributorBalance",
      "outputs": [
        {
          "internalType": "uint256",
          "name": "",
          "type": "uint256"
        }
      ],
      "stateMutability": "view",
      "type": "function",
      "constant": true
    },
    {
      "inputs": [
        {
          "internalType": "uint256",
          "name": "proposalId",
          "type": "uint256"
        }
      ],
      "name": "getProposal",
      "outputs": [
        {
          "components": [
            {
              "internalType": "uint256",
              "name": "id",
              "type": "uint256"
            },
            {
              "internalType": "uint256",
              "name": "duration",
              "type": "uint256"
            },
            {
              "internalType": "uint256",
              "name": "upvotes",
              "type": "uint256"
            },
            {
              "internalType": "uint256",
              "name": "downvotes",
              "type": "uint256"
            },
            {
              "internalType": "string",
              "name": "title",
              "type": "string"
            },
            {
              "internalType": "string",
              "name": "description",
              "type": "string"
            },
            {
              "internalType": "bool",
              "name": "passed",
              "type": "bool"
            },
            {
              "internalType": "address",
              "name": "proposer",
              "type": "address"
            },
            {
              "internalType": "address",
              "name": "executor",
              "type": "address"
            }
          ],
          "internalType": "struct DominionDAO.ProposalStruct",
          "name": "",
          "type": "tuple"
        }
      ],
      "stateMutability": "view",
      "type": "function",
      "constant": true
    },
    {
      "inputs": [],
      "name": "getProposals",
      "outputs": [
        {
          "components": [
            {
              "internalType": "uint256",
              "name": "id",
              "type": "uint256"
            },
            {
              "internalType": "uint256",
              "name": "duration",
              "type": "uint256"
            },
            {
              "internalType": "uint256",
              "name": "upvotes",
              "type": "uint256"
            },
            {
              "internalType": "uint256",
              "name": "downvotes",
              "type": "uint256"
            },
            {
              "internalType": "string",
              "name": "title",
              "type": "string"
            },
            {
              "internalType": "string",
              "name": "description",
              "type": "string"
            },
            {
              "internalType": "bool",
              "name": "passed",
              "type": "bool"
            },
            {
              "internalType": "address",
              "name": "proposer",
              "type": "address"
            },
            {
              "internalType": "address",
              "name": "executor",
              "type": "address"
            }
          ],
          "internalType": "struct DominionDAO.ProposalStruct[]",
          "name": "props",
          "type": "tuple[]"
        }
      ],
      "stateMutability": "view",
      "type": "function",
      "constant": true
    },
    {
      "inputs": [
        {
          "internalType": "bytes32",
          "name": "role",
          "type": "bytes32"
        }
      ],
      "name": "getRoleAdmin",
      "outputs": [
        {
          "internalType": "bytes32",
          "name": "",
          "type": "bytes32"
        }
      ],
      "stateMutability": "view",
      "type": "function",
      "constant": true
    },
    {
      "inputs": [],
      "name": "getStakeholderBalance",
      "outputs": [
        {
          "internalType": "uint256",
          "name": "",
          "type": "uint256"
        }
      ],
      "stateMutability": "view",
      "type": "function",
      "constant": true
    },
    {
      "inputs": [],
      "name": "getStakeholderVotes",
      "outputs": [
        {
          "internalType": "uint256[]",
          "name": "",
          "type": "uint256[]"
        }
      ],
      "stateMutability": "view",
      "type": "function",
      "constant": true
    },
    {
      "inputs": [
        {
          "internalType": "uint256",
          "name": "proposalId",
          "type": "uint256"
        }
      ],
      "name": "getVotesOf",
      "outputs": [
        {
          "components": [
            {
              "internalType": "address",
              "name": "voter",
              "type": "address"
            },
            {
              "internalType": "uint256",
              "name": "timestamp",
              "type": "uint256"
            },
            {
              "internalType": "bool",
              "name": "choosen",
              "type": "bool"
            }
          ],
          "internalType": "struct DominionDAO.VotedStruct[]",
          "name": "",
          "type": "tuple[]"
        }
      ],
      "stateMutability": "view",
      "type": "function",
      "constant": true
    },
    {
      "inputs": [
        {
          "internalType": "bytes32",
          "name": "role",
          "type": "bytes32"
        },
        {
          "internalType": "address",
          "name": "account",
          "type": "address"
        }
      ],
      "name": "grantRole",
      "outputs": [],
      "stateMutability": "nonpayable",
      "type": "function"
    },
    {
      "inputs": [
        {
          "internalType": "bytes32",
          "name": "role",
          "type": "bytes32"
        },
        {
          "internalType": "address",
          "name": "account",
          "type": "address"
        }
      ],
      "name": "hasRole",
      "outputs": [
        {
          "internalType": "bool",
          "name": "",
          "type": "bool"
        }
      ],
      "stateMutability": "view",
      "type": "function",
      "constant": true
    },
    {
      "inputs": [
        {
          "internalType": "uint256",
          "name": "",
          "type": "uint256"
        }
      ],
      "name": "holderOf",
      "outputs": [
        {
          "internalType": "address",
          "name": "",
          "type": "address"
        }
      ],
      "stateMutability": "view",
      "type": "function",
      "constant": true
    },
    {
      "inputs": [
        {
          "internalType": "address",
          "name": "owner",
          "type": "address"
        },
        {
          "internalType": "address",
          "name": "operator",
          "type": "address"
        }
      ],
      "name": "isApprovedForAll",
      "outputs": [
        {
          "internalType": "bool",
          "name": "",
          "type": "bool"
        }
      ],
      "stateMutability": "view",
      "type": "function",
      "constant": true
    },
    {
      "inputs": [],
      "name": "isContributor",
      "outputs": [
        {
          "internalType": "bool",
          "name": "",
          "type": "bool"
        }
      ],
      "stateMutability": "view",
      "type": "function",
      "constant": true
    },
    {
      "inputs": [],
      "name": "isStakeholder",
      "outputs": [
        {
          "internalType": "bool",
          "name": "",
          "type": "bool"
        }
      ],
      "stateMutability": "view",
      "type": "function",
      "constant": true
    },
    {
      "inputs": [],
      "name": "maxper",
      "outputs": [
        {
          "internalType": "uint256",
          "name": "",
          "type": "uint256"
        }
      ],
      "stateMutability": "view",
      "type": "function",
      "constant": true
    },
    {
      "inputs": [],
      "name": "mintedmax",
      "outputs": [
        {
          "internalType": "uint256",
          "name": "",
          "type": "uint256"
        }
      ],
      "stateMutability": "view",
      "type": "function",
      "constant": true
    },
    {
      "inputs": [],
      "name": "name",
      "outputs": [
        {
          "internalType": "string",
          "name": "",
          "type": "string"
        }
      ],
      "stateMutability": "view",
      "type": "function",
      "constant": true
    },
    {
      "inputs": [],
      "name": "owner",
      "outputs": [
        {
          "internalType": "address",
          "name": "",
          "type": "address"
        }
      ],
      "stateMutability": "view",
      "type": "function",
      "constant": true
    },
    {
      "inputs": [
        {
          "internalType": "uint256",
          "name": "tokenId",
          "type": "uint256"
        }
      ],
      "name": "ownerOf",
      "outputs": [
        {
          "internalType": "address",
          "name": "",
          "type": "address"
        }
      ],
      "stateMutability": "view",
      "type": "function",
      "constant": true
    },
    {
      "inputs": [
        {
          "internalType": "uint256",
          "name": "proposalId",
          "type": "uint256"
        },
        {
          "internalType": "bool",
          "name": "choosen",
          "type": "bool"
        }
      ],
      "name": "performVote",
      "outputs": [
        {
          "components": [
            {
              "internalType": "address",
              "name": "voter",
              "type": "address"
            },
            {
              "internalType": "uint256",
              "name": "timestamp",
              "type": "uint256"
            },
            {
              "internalType": "bool",
              "name": "choosen",
              "type": "bool"
            }
          ],
          "internalType": "struct DominionDAO.VotedStruct",
          "name": "",
          "type": "tuple"
        }
      ],
      "stateMutability": "nonpayable",
      "type": "function"
    },
    {
      "inputs": [],
      "name": "renounceOwnership",
      "outputs": [],
      "stateMutability": "nonpayable",
      "type": "function"
    },
    {
      "inputs": [
        {
          "internalType": "bytes32",
          "name": "role",
          "type": "bytes32"
        },
        {
          "internalType": "address",
          "name": "account",
          "type": "address"
        }
      ],
      "name": "renounceRole",
      "outputs": [],
      "stateMutability": "nonpayable",
      "type": "function"
    },
    {
      "inputs": [
        {
          "internalType": "bytes32",
          "name": "role",
          "type": "bytes32"
        },
        {
          "internalType": "address",
          "name": "account",
          "type": "address"
        }
      ],
      "name": "revokeRole",
      "outputs": [],
      "stateMutability": "nonpayable",
      "type": "function"
    },
    {
      "inputs": [],
      "name": "royalityFee",
      "outputs": [
        {
          "internalType": "uint256",
          "name": "",
          "type": "uint256"
        }
      ],
      "stateMutability": "view",
      "type": "function",
      "constant": true
    },
    {
      "inputs": [
        {
          "internalType": "address",
          "name": "from",
          "type": "address"
        },
        {
          "internalType": "address",
          "name": "to",
          "type": "address"
        },
        {
          "internalType": "uint256",
          "name": "tokenId",
          "type": "uint256"
        }
      ],
      "name": "safeTransferFrom",
      "outputs": [],
      "stateMutability": "payable",
      "type": "function",
      "payable": true
    },
    {
      "inputs": [
        {
          "internalType": "address",
          "name": "from",
          "type": "address"
        },
        {
          "internalType": "address",
          "name": "to",
          "type": "address"
        },
        {
          "internalType": "uint256",
          "name": "tokenId",
          "type": "uint256"
        },
        {
          "internalType": "bytes",
          "name": "_data",
          "type": "bytes"
        }
      ],
      "name": "safeTransferFrom",
      "outputs": [],
      "stateMutability": "payable",
      "type": "function",
      "payable": true
    },
    {
      "inputs": [
        {
          "internalType": "address",
          "name": "operator",
          "type": "address"
        },
        {
          "internalType": "bool",
          "name": "approved",
          "type": "bool"
        }
      ],
      "name": "setApprovalForAll",
      "outputs": [],
      "stateMutability": "nonpayable",
      "type": "function"
    },
    {
      "inputs": [],
      "name": "stakeNum",
      "outputs": [
        {
          "internalType": "uint256",
          "name": "",
          "type": "uint256"
        }
      ],
      "stateMutability": "view",
      "type": "function",
      "constant": true
    },
    {
      "inputs": [
        {
          "internalType": "address",
          "name": "",
          "type": "address"
        }
      ],
      "name": "stakeholders",
      "outputs": [
        {
          "internalType": "uint256",
          "name": "",
          "type": "uint256"
        }
      ],
      "stateMutability": "view",
      "type": "function",
      "constant": true
    },
    {
      "inputs": [],
      "name": "supply",
      "outputs": [
        {
          "internalType": "uint256",
          "name": "",
          "type": "uint256"
        }
      ],
      "stateMutability": "view",
      "type": "function",
      "constant": true
    },
    {
      "inputs": [],
      "name": "symbol",
      "outputs": [
        {
          "internalType": "string",
          "name": "",
          "type": "string"
        }
      ],
      "stateMutability": "view",
      "type": "function",
      "constant": true
    },
    {
      "inputs": [
        {
          "internalType": "uint256",
          "name": "index",
          "type": "uint256"
        }
      ],
      "name": "tokenByIndex",
      "outputs": [
        {
          "internalType": "uint256",
          "name": "",
          "type": "uint256"
        }
      ],
      "stateMutability": "view",
      "type": "function",
      "constant": true
    },
    {
      "inputs": [
        {
          "internalType": "address",
          "name": "owner",
          "type": "address"
        },
        {
          "internalType": "uint256",
          "name": "index",
          "type": "uint256"
        }
      ],
      "name": "tokenOfOwnerByIndex",
      "outputs": [
        {
          "internalType": "uint256",
          "name": "",
          "type": "uint256"
        }
      ],
      "stateMutability": "view",
      "type": "function",
      "constant": true
    },
    {
      "inputs": [
        {
          "internalType": "uint256",
          "name": "tokenId",
          "type": "uint256"
        }
      ],
      "name": "tokenURI",
      "outputs": [
        {
          "internalType": "string",
          "name": "",
          "type": "string"
        }
      ],
      "stateMutability": "view",
      "type": "function",
      "constant": true
    },
    {
      "inputs": [],
      "name": "totalSupply",
      "outputs": [
        {
          "internalType": "uint256",
          "name": "",
          "type": "uint256"
        }
      ],
      "stateMutability": "view",
      "type": "function",
      "constant": true
    },
    {
      "inputs": [],
      "name": "totalTx",
      "outputs": [
        {
          "internalType": "uint256",
          "name": "",
          "type": "uint256"
        }
      ],
      "stateMutability": "view",
      "type": "function",
      "constant": true
    },
    {
      "inputs": [
        {
          "internalType": "address",
          "name": "from",
          "type": "address"
        },
        {
          "internalType": "address",
          "name": "to",
          "type": "address"
        },
        {
          "internalType": "uint256",
          "name": "tokenId",
          "type": "uint256"
        }
      ],
      "name": "transferFrom",
      "outputs": [],
      "stateMutability": "payable",
      "type": "function",
      "payable": true
    },
    {
      "inputs": [
        {
          "internalType": "address",
          "name": "newOwner",
          "type": "address"
        }
      ],
      "name": "transferOwnership",
      "outputs": [],
      "stateMutability": "nonpayable",
      "type": "function"
    },
    {
      "inputs": [
        {
          "internalType": "bytes4",
          "name": "interfaceId",
          "type": "bytes4"
        }
      ],
      "name": "supportsInterface",
      "outputs": [
        {
          "internalType": "bool",
          "name": "",
          "type": "bool"
        }
      ],
      "stateMutability": "view",
      "type": "function",
      "constant": true
    },
    {
      "inputs": [
        {
          "internalType": "string",
          "name": "title",
          "type": "string"
        },
        {
          "internalType": "string",
          "name": "description",
          "type": "string"
        },
        {
          "internalType": "string",
          "name": "metadataURI",
          "type": "string"
        },
        {
          "internalType": "uint256",
          "name": "salesPrice",
          "type": "uint256"
        }
      ],
      "name": "payToMint",
      "outputs": [],
      "stateMutability": "payable",
      "type": "function",
      "payable": true
    },
    {
      "inputs": [
        {
          "internalType": "uint256",
          "name": "id",
          "type": "uint256"
        }
      ],
      "name": "payToBuy",
      "outputs": [],
      "stateMutability": "payable",
      "type": "function",
      "payable": true
    },
    {
      "inputs": [
        {
          "internalType": "uint256",
          "name": "id",
          "type": "uint256"
        },
        {
          "internalType": "uint256",
          "name": "newPrice",
          "type": "uint256"
        }
      ],
      "name": "changePrice",
      "outputs": [
        {
          "internalType": "bool",
          "name": "",
          "type": "bool"
        }
      ],
      "stateMutability": "nonpayable",
      "type": "function"
    },
    {
      "inputs": [],
      "name": "getAllNFTs",
      "outputs": [
        {
          "components": [
            {
              "internalType": "uint256",
              "name": "id",
              "type": "uint256"
            },
            {
              "internalType": "address",
              "name": "owner",
              "type": "address"
            },
            {
              "internalType": "uint256",
              "name": "cost",
              "type": "uint256"
            },
            {
              "internalType": "string",
              "name": "title",
              "type": "string"
            },
            {
              "internalType": "string",
              "name": "description",
              "type": "string"
            },
            {
              "internalType": "string",
              "name": "metadataURI",
              "type": "string"
            },
            {
              "internalType": "uint256",
              "name": "timestamp",
              "type": "uint256"
            }
          ],
          "internalType": "struct TimelessNFT.TransactionStruct[]",
          "name": "",
          "type": "tuple[]"
        }
      ],
      "stateMutability": "view",
      "type": "function",
      "constant": true
    },
    {
      "inputs": [
        {
          "internalType": "uint256",
          "name": "id",
          "type": "uint256"
        }
      ],
      "name": "getNFT",
      "outputs": [
        {
          "components": [
            {
              "internalType": "uint256",
              "name": "id",
              "type": "uint256"
            },
            {
              "internalType": "address",
              "name": "owner",
              "type": "address"
            },
            {
              "internalType": "uint256",
              "name": "cost",
              "type": "uint256"
            },
            {
              "internalType": "string",
              "name": "title",
              "type": "string"
            },
            {
              "internalType": "string",
              "name": "description",
              "type": "string"
            },
            {
              "internalType": "string",
              "name": "metadataURI",
              "type": "string"
            },
            {
              "internalType": "uint256",
              "name": "timestamp",
              "type": "uint256"
            }
          ],
          "internalType": "struct TimelessNFT.TransactionStruct",
          "name": "",
          "type": "tuple"
        }
      ],
      "stateMutability": "view",
      "type": "function",
      "constant": true
    },
    {
      "inputs": [],
      "name": "getAllTransactions",
      "outputs": [
        {
          "components": [
            {
              "internalType": "uint256",
              "name": "id",
              "type": "uint256"
            },
            {
              "internalType": "address",
              "name": "owner",
              "type": "address"
            },
            {
              "internalType": "uint256",
              "name": "cost",
              "type": "uint256"
            },
            {
              "internalType": "string",
              "name": "title",
              "type": "string"
            },
            {
              "internalType": "string",
              "name": "description",
              "type": "string"
            },
            {
              "internalType": "string",
              "name": "metadataURI",
              "type": "string"
            },
            {
              "internalType": "uint256",
              "name": "timestamp",
              "type": "uint256"
            }
          ],
          "internalType": "struct TimelessNFT.TransactionStruct[]",
          "name": "",
          "type": "tuple[]"
        }
      ],
      "stateMutability": "view",
      "type": "function",
      "constant": true
    }
  ],
  "bytecode": "0x6101006040527fa0bb1af1c90aa52ed052b92714ff0087008cc720049bf1af77cca2600b31e80c6080527ff4bb84e1768dd286358a736d195a0b228621173f655a73b89bf8b191ed0ba07d60a052674563918244f4000060c05261025860e0526000601b819055601c55662386f26fc10000601d553480156200008157600080fd5b506040516200550c3803806200550c833981016040819052620000a491620002ec565b60016000819055845185918591620000c29190602085019062000179565b508051620000d890600290602084019062000179565b505050620000f5620000ef6200012360201b60201c565b62000127565b601a91909155601980546001600160a01b0319166001600160a01b0390921691909117905550620003be9050565b3390565b600b80546001600160a01b038381166001600160a01b0319831681179093556040519116919082907f8be0079c531659141344cd1fd0a4f28419497f9722a3daafe3b4186f6b6457e090600090a35050565b828054620001879062000381565b90600052602060002090601f016020900481019282620001ab5760008555620001f6565b82601f10620001c657805160ff1916838001178555620001f6565b82800160010185558215620001f6579182015b82811115620001f6578251825591602001919060010190620001d9565b506200020492915062000208565b5090565b5b8082111562000204576000815560010162000209565b634e487b7160e01b600052604160045260246000fd5b600082601f8301126200024757600080fd5b81516001600160401b03808211156200026457620002646200021f565b604051601f8301601f19908116603f011681019082821181831017156200028f576200028f6200021f565b81604052838152602092508683858801011115620002ac57600080fd5b600091505b83821015620002d05785820183015181830184015290820190620002b1565b83821115620002e25760008385830101525b9695505050505050565b600080600080608085870312156200030357600080fd5b84516001600160401b03808211156200031b57600080fd5b620003298883890162000235565b955060208701519150808211156200034057600080fd5b506200034f8782880162000235565b60408701516060880151919550935090506001600160a01b03811681146200037657600080fd5b939692955090935050565b600181811c908216806200039657607f821691505b60208210811415620003b857634e487b7160e01b600052602260045260246000fd5b50919050565b60805160a05160c05160e0516150b96200045360003960006117f301526000612e2d0152600081816105570152818161174401528181611b10015281816125e2015281816126df0152818161288101528181612de501528181612e890152612fbf015260008181610a5f015281816110de0152818161184b01528181612d4b01528181612eb30152612f0701526150b96000f3fe6080604052600436106103765760003560e01c806370a08231116101d1578063bd97281611610102578063d7bb99ba116100a0578063e985e9c51161006f578063e985e9c514610a04578063eafb79e214610a4d578063f2fde38b14610a81578063f687b6d914610aa157600080fd5b8063d7bb99ba1461099b578063dbacc237146109a3578063e0391b09146109d9578063e5743bc8146109ee57600080fd5b8063c7f758a8116100dc578063c7f758a814610917578063c87b56dd14610937578063d547741f14610957578063d6cc80161461097757600080fd5b8063bd972816146108b0578063c02146ac146108c6578063c07cfca9146108ea57600080fd5b80639ba4b0171161016f578063a22f1db711610149578063a22f1db71461082e578063b31f111c14610850578063b3de019c1461087d578063b88d4fde1461089d57600080fd5b80639ba4b017146107e6578063a217fddf146107f9578063a22cb4651461080e57600080fd5b8063799c0c1e116101ab578063799c0c1e146107805780638da5cb5b1461079357806391d14854146107b157806395d89b41146107d157600080fd5b806370a0823114610735578063715018a6146107555780637220cf391461076a57600080fd5b80632f2ff15d116102ab5780634f6ccce7116102495780636352211e116102235780636352211e146106a657806365e481e2146106c657806369a136dc146106f35780636a80d84d1461072057600080fd5b80634f6ccce714610637578063576f7ea71461065757806362564c481461068457600080fd5b806336568abe1161028557806336568abe146105cf5780633cdb48c2146105ef57806342842e0e1461060457806343bc16121461061757600080fd5b80632f2ff15d146105795780632f745c5914610599578063326bb4ad146105b957600080fd5b806313faede61161031857806323b872dd116102f257806323b872dd146104e0578063248a9ca3146104f357806327506f53146105235780632b7fac731461054557600080fd5b806313faede61461048857806318160ddd1461049e5780631f6d4942146104b357600080fd5b8063081812fc11610354578063081812fc146103f6578063095ea7b31461042e5780631154e4a01461045057806312065fe01461046657600080fd5b806301ffc9a71461037b578063047fc9aa146103b057806306fdde03146103d4575b600080fd5b34801561038757600080fd5b5061039b61039636600461450c565b610ab7565b60405190151581526020015b60405180910390f35b3480156103bc57600080fd5b506103c6601b5481565b6040519081526020016103a7565b3480156103e057600080fd5b506103e9610ac8565b6040516103a79190614581565b34801561040257600080fd5b50610416610411366004614594565b610b5a565b6040516001600160a01b0390911681526020016103a7565b34801561043a57600080fd5b5061044e6104493660046145c9565b610bf4565b005b34801561045c57600080fd5b506103c660105481565b34801561047257600080fd5b50336000908152601560205260409020546103c6565b34801561049457600080fd5b506103c6601d5481565b3480156104aa57600080fd5b506009546103c6565b3480156104bf57600080fd5b506103c66104ce3660046145f3565b60156020526000908152604090205481565b61044e6104ee36600461460e565b610d0a565b3480156104ff57600080fd5b506103c661050e366004614594565b6000908152600c602052604090206001015490565b34801561052f57600080fd5b50610538610d3b565b6040516103a791906146cf565b34801561055157600080fd5b506103c67f000000000000000000000000000000000000000000000000000000000000000081565b34801561058557600080fd5b5061044e610594366004614731565b610f85565b3480156105a557600080fd5b506103c66105b43660046145c9565b610faa565b3480156105c557600080fd5b506103c6601a5481565b3480156105db57600080fd5b5061044e6105ea366004614731565b611040565b3480156105fb57600080fd5b506103c66110be565b61044e61061236600461460e565b61113a565b34801561062357600080fd5b50601954610416906001600160a01b031681565b34801561064357600080fd5b506103c6610652366004614594565b611155565b34801561066357600080fd5b50610677610672366004614594565b6111e8565b6040516103a7919061475d565b34801561069057600080fd5b50610699611471565b6040516103a79190614817565b3480156106b257600080fd5b506104166106c1366004614594565b6116a7565b3480156106d257600080fd5b506106e66106e13660046148b5565b61171e565b6040516103a79190614921565b3480156106ff57600080fd5b5061071361070e366004614594565b611a39565b6040516103a79190614934565b34801561072c57600080fd5b506103c6611ad3565b34801561074157600080fd5b506103c66107503660046145f3565b611b6b565b34801561076157600080fd5b5061044e611bf2565b34801561077657600080fd5b506103c6601c5481565b61044e61078e366004614a4d565b611c06565b34801561079f57600080fd5b50600b546001600160a01b0316610416565b3480156107bd57600080fd5b5061039b6107cc366004614731565b611f87565b3480156107dd57600080fd5b506103e9611fb2565b61044e6107f4366004614594565b611fc1565b34801561080557600080fd5b506103c6600081565b34801561081a57600080fd5b5061044e610829366004614aed565b61259a565b34801561083a57600080fd5b506108436125a5565b6040516103a79190614b17565b34801561085c57600080fd5b5061087061086b366004614b4f565b612687565b6040516103a79190614b72565b34801561088957600080fd5b5061039b610898366004614b9e565b6128f7565b61044e6108ab366004614bc0565b6129f5565b3480156108bc57600080fd5b506103c6600e5481565b3480156108d257600080fd5b5033600090815260166020526040902054151561039b565b3480156108f657600080fd5b506103c66109053660046145f3565b60166020526000908152604090205481565b34801561092357600080fd5b506106e6610932366004614594565b612a2d565b34801561094357600080fd5b506103e9610952366004614594565b612bd9565b34801561096357600080fd5b5061044e610972366004614731565b612cc1565b34801561098357600080fd5b5033600090815260156020526040902054151561039b565b6103c6612ce6565b3480156109af57600080fd5b506104166109be366004614594565b6018602052600090815260409020546001600160a01b031681565b3480156109e557600080fd5b50610538613022565b3480156109fa57600080fd5b506103c6600f5481565b348015610a1057600080fd5b5061039b610a1f366004614c3c565b6001600160a01b03918216600090815260066020908152604080832093909416825291909152205460ff1690565b348015610a5957600080fd5b506103c67f000000000000000000000000000000000000000000000000000000000000000081565b348015610a8d57600080fd5b5061044e610a9c3660046145f3565b613263565b348015610aad57600080fd5b506103c660115481565b6000610ac2826132dc565b92915050565b606060018054610ad790614c66565b80601f0160208091040260200160405190810160405280929190818152602001828054610b0390614c66565b8015610b505780601f10610b2557610100808354040283529160200191610b50565b820191906000526020600020905b815481529060010190602001808311610b3357829003601f168201915b5050505050905090565b6000818152600360205260408120546001600160a01b0316610bd85760405162461bcd60e51b815260206004820152602c60248201527f4552433732313a20617070726f76656420717565727920666f72206e6f6e657860448201526b34b9ba32b73a103a37b5b2b760a11b60648201526084015b60405180910390fd5b506000908152600560205260409020546001600160a01b031690565b6000610bff826116a7565b9050806001600160a01b0316836001600160a01b03161415610c6d5760405162461bcd60e51b815260206004820152602160248201527f4552433732313a20617070726f76616c20746f2063757272656e74206f776e656044820152603960f91b6064820152608401610bcf565b336001600160a01b0382161480610c895750610c898133610a1f565b610cfb5760405162461bcd60e51b815260206004820152603860248201527f4552433732313a20617070726f76652063616c6c6572206973206e6f74206f7760448201527f6e6572206e6f7220617070726f76656420666f7220616c6c00000000000000006064820152608401610bcf565b610d058383613301565b505050565b610d14338261336f565b610d305760405162461bcd60e51b8152600401610bcf90614ca1565b610d05838383613466565b6060601e805480602002602001604051908101604052809291908181526020016000905b82821015610f7c5760008481526020908190206040805160e081018252600786029092018054835260018101546001600160a01b031693830193909352600283015490820152600382018054919291606084019190610dbd90614c66565b80601f0160208091040260200160405190810160405280929190818152602001828054610de990614c66565b8015610e365780601f10610e0b57610100808354040283529160200191610e36565b820191906000526020600020905b815481529060010190602001808311610e1957829003601f168201915b50505050508152602001600482018054610e4f90614c66565b80601f0160208091040260200160405190810160405280929190818152602001828054610e7b90614c66565b8015610ec85780601f10610e9d57610100808354040283529160200191610ec8565b820191906000526020600020905b815481529060010190602001808311610eab57829003601f168201915b50505050508152602001600582018054610ee190614c66565b80601f0160208091040260200160405190810160405280929190818152602001828054610f0d90614c66565b8015610f5a5780601f10610f2f57610100808354040283529160200191610f5a565b820191906000526020600020905b815481529060010190602001808311610f3d57829003601f168201915b5050505050815260200160068201548152505081526020019060010190610d5f565b50505050905090565b6000828152600c6020526040902060010154610fa081613611565b610d05838361361b565b6000610fb583611b6b565b82106110175760405162461bcd60e51b815260206004820152602b60248201527f455243373231456e756d657261626c653a206f776e657220696e646578206f7560448201526a74206f6620626f756e647360a81b6064820152608401610bcf565b506001600160a01b03919091166000908152600760209081526040808320938352929052205490565b6001600160a01b03811633146110b05760405162461bcd60e51b815260206004820152602f60248201527f416363657373436f6e74726f6c3a2063616e206f6e6c792072656e6f756e636560448201526e103937b632b9903337b91039b2b63360891b6064820152608401610bcf565b6110ba82826136a1565b5050565b6000604051806060016040528060218152602001615034602191396111037f000000000000000000000000000000000000000000000000000000000000000033611f87565b81906111225760405162461bcd60e51b8152600401610bcf9190614581565b503360009081526015602052604090205491505b5090565b610d05838383604051806020016040528060008152506129f5565b600061116060095490565b82106111c35760405162461bcd60e51b815260206004820152602c60248201527f455243373231456e756d657261626c653a20676c6f62616c20696e646578206f60448201526b7574206f6620626f756e647360a01b6064820152608401610bcf565b600982815481106111d6576111d6614cf2565b90600052602060002001549050919050565b6112316040518060e001604052806000815260200160006001600160a01b0316815260200160008152602001606081526020016060815260200160608152602001600081525090565b601f61123e600184614d1e565b8154811061124e5761124e614cf2565b90600052602060002090600702016040518060e0016040529081600082015481526020016001820160009054906101000a90046001600160a01b03166001600160a01b03166001600160a01b03168152602001600282015481526020016003820180546112ba90614c66565b80601f01602080910402602001604051908101604052809291908181526020018280546112e690614c66565b80156113335780601f1061130857610100808354040283529160200191611333565b820191906000526020600020905b81548152906001019060200180831161131657829003601f168201915b5050505050815260200160048201805461134c90614c66565b80601f016020809104026020016040519081016040528092919081815260200182805461137890614c66565b80156113c55780601f1061139a576101008083540402835291602001916113c5565b820191906000526020600020905b8154815290600101906020018083116113a857829003601f168201915b505050505081526020016005820180546113de90614c66565b80601f016020809104026020016040519081016040528092919081815260200182805461140a90614c66565b80156114575780601f1061142c57610100808354040283529160200191611457565b820191906000526020600020905b81548152906001019060200180831161143a57829003601f168201915b505050505081526020016006820154815250509050919050565b6060600d5467ffffffffffffffff81111561148e5761148e6149a1565b6040519080825280602002602001820160405280156114c757816020015b6114b461438d565b8152602001906001900390816114ac5790505b50905060005b600d548110156111365760126000828152602001908152602001600020604051806101200160405290816000820154815260200160018201548152602001600282015481526020016003820154815260200160048201805461152e90614c66565b80601f016020809104026020016040519081016040528092919081815260200182805461155a90614c66565b80156115a75780601f1061157c576101008083540402835291602001916115a7565b820191906000526020600020905b81548152906001019060200180831161158a57829003601f168201915b505050505081526020016005820180546115c090614c66565b80601f01602080910402602001604051908101604052809291908181526020018280546115ec90614c66565b80156116395780601f1061160e57610100808354040283529160200191611639565b820191906000526020600020905b81548152906001019060200180831161161c57829003601f168201915b5050509183525050600682015460ff8116151560208301526001600160a01b0361010090910481166040830152600790920154909116606090910152825183908390811061168957611689614cf2565b6020026020010181905250808061169f90614d35565b9150506114cd565b6000818152600360205260408120546001600160a01b031680610ac25760405162461bcd60e51b815260206004820152602960248201527f4552433732313a206f776e657220717565727920666f72206e6f6e657869737460448201526832b73a103a37b5b2b760b91b6064820152608401610bcf565b61172661438d565b6040518060600160405280602f8152602001615055602f91396117697f000000000000000000000000000000000000000000000000000000000000000033611f87565b81906117885760405162461bcd60e51b8152600401610bcf9190614581565b50600d80546000918261179a83614d35565b909155506000818152601260205260409020818155600681018054610100600160a81b03191633610100021790559091506117d96004820189896143ed565b506117e86005820187876143ed565b5061181963ffffffff7f00000000000000000000000000000000000000000000000000000000000000001642614d50565b600182015560405133907ff4195914bd1a75ff318a3e75d2111a80cc0a9a8375aea50e407aec30082ea0e390611899907f00000000000000000000000000000000000000000000000000000000000000008152604060208201819052600f908201526e141493d413d4d0530814905254d151608a1b606082015260800190565b60405180910390a28060405180610120016040529081600082015481526020016001820154815260200160028201548152602001600382015481526020016004820180546118e690614c66565b80601f016020809104026020016040519081016040528092919081815260200182805461191290614c66565b801561195f5780601f106119345761010080835404028352916020019161195f565b820191906000526020600020905b81548152906001019060200180831161194257829003601f168201915b5050505050815260200160058201805461197890614c66565b80601f01602080910402602001604051908101604052809291908181526020018280546119a490614c66565b80156119f15780601f106119c6576101008083540402835291602001916119f1565b820191906000526020600020905b8154815290600101906020018083116119d457829003601f168201915b5050509183525050600682015460ff81161515602083015261010090046001600160a01b03908116604083015260079092015490911660609091015298975050505050505050565b606060146000838152602001908152602001600020805480602002602001604051908101604052809291908181526020016000905b82821015611ac8576000848152602090819020604080516060810182526003860290920180546001600160a01b031683526001808201548486015260029091015460ff161515918301919091529083529092019101611a6e565b505050509050919050565b60006040518060400160405280601f81526020017f556e617574686f72697a65643a206e6f742061207374616b65686f6c64657200815250611b357f000000000000000000000000000000000000000000000000000000000000000033611f87565b8190611b545760405162461bcd60e51b8152600401610bcf9190614581565b503360009081526016602052604090205491505090565b60006001600160a01b038216611bd65760405162461bcd60e51b815260206004820152602a60248201527f4552433732313a2062616c616e636520717565727920666f7220746865207a65604482015269726f206164647265737360b01b6064820152608401610bcf565b506001600160a01b031660009081526004602052604090205490565b611bfa613708565b611c046000613762565b565b601d54341015611c585760405162461bcd60e51b815260206004820152601a60248201527f457468657220746f6f206c6f7720666f72206d696e74696e67210000000000006044820152606401610bcf565b601782604051611c689190614d68565b908152602001604051809103902054600014611cc65760405162461bcd60e51b815260206004820152601b60248201527f54686973204e465420697320616c7265616479206d696e7465642100000000006044820152606401610bcf565b600b546001600160a01b0316331415611d165760405162461bcd60e51b815260206004820152601260248201527153616c6573206e6f7420616c6c6f7765642160701b6044820152606401610bcf565b60006064601a5434611d289190614d84565b611d329190614da3565b601954909150611d4b906001600160a01b0316826137b4565b50611d70611d61600b546001600160a01b031690565b611d6b8334614d1e565b6137b4565b50601b8054906000611d8183614d35565b90915550506040805160e081018252601b548152336020808301918252928201858152606083018981526080840189905260a084018890524260c0850152601f8054600181018255600091909152845160079091027fa03837a25210ee280c2113ff4b77ca23440b19d4866cca721c801278fd08d807810191825593517fa03837a25210ee280c2113ff4b77ca23440b19d4866cca721c801278fd08d808850180546001600160a01b03929092166001600160a01b031990921691909117905591517fa03837a25210ee280c2113ff4b77ca23440b19d4866cca721c801278fd08d80984015551805193949193611e9f937fa03837a25210ee280c2113ff4b77ca23440b19d4866cca721c801278fd08d80a0192919091019061446d565b5060808201518051611ebb91600484019160209091019061446d565b5060a08201518051611ed791600584019160209091019061446d565b5060c082015181600601555050336001600160a01b03167fb9508407a6eccb191d8da3286f4173697cf95604e9ea192fe5ab7c862b5221f6601b54348642604051611f259493929190614dc5565b60405180910390a2611f3933601b54613853565b6001601784604051611f4b9190614d68565b9081526040805191829003602090810190922092909255601b54600090815260189091522080546001600160a01b031916331790555050505050565b6000918252600c602090815260408084206001600160a01b0393909316845291905290205460ff1690565b606060028054610ad790614c66565b601f611fce600183614d1e565b81548110611fde57611fde614cf2565b90600052602060002090600702016002015434101561203f5760405162461bcd60e51b815260206004820152601b60248201527f457468657220746f6f206c6f7720666f722070757263686173652100000000006044820152606401610bcf565b601f61204c600183614d1e565b8154811061205c5761205c614cf2565b60009182526020909120600790910201600101546001600160a01b03163314156120c15760405162461bcd60e51b81526020600482015260166024820152754f7065726174696f6e204e6f7420416c6c6f7765642160501b6044820152606401610bcf565b60006064601a54346120d39190614d84565b6120dd9190614da3565b90506000805b601f5481101561213157601f818154811061210057612100614cf2565b9060005260206000209060070201600201548261211d9190614d50565b91508061212981614d35565b9150506120e3565b50606461213f82604b614d84565b6121499190614da3565b601055601954612162906001600160a01b0316836137b4565b506121aa601f612173600186614d1e565b8154811061218357612183614cf2565b60009182526020909120600160079092020101546001600160a01b0316611d6b8434614d1e565b50601c80549060006121bb83614d35565b9190505550601e6040518060e00160405280601c548152602001336001600160a01b03168152602001348152602001601f6001876121f99190614d1e565b8154811061220957612209614cf2565b9060005260206000209060070201600301805461222590614c66565b80601f016020809104026020016040519081016040528092919081815260200182805461225190614c66565b801561229e5780601f106122735761010080835404028352916020019161229e565b820191906000526020600020905b81548152906001019060200180831161228157829003601f168201915b5050509183525050602001601f6122b6600188614d1e565b815481106122c6576122c6614cf2565b906000526020600020906007020160040180546122e290614c66565b80601f016020809104026020016040519081016040528092919081815260200182805461230e90614c66565b801561235b5780601f106123305761010080835404028352916020019161235b565b820191906000526020600020905b81548152906001019060200180831161233e57829003601f168201915b5050509183525050602001601f612373600188614d1e565b8154811061238357612383614cf2565b9060005260206000209060070201600501805461239f90614c66565b80601f01602080910402602001604051908101604052809291908181526020018280546123cb90614c66565b80156124185780601f106123ed57610100808354040283529160200191612418565b820191906000526020600020905b8154815290600101906020018083116123fb57829003601f168201915b50505091835250504260209182015282546001808201855560009485529382902083516007909202019081558282015193810180546001600160a01b0319166001600160a01b0390951694909417909355604082015160028401556060820151805192939261248d926003850192019061446d565b50608082015180516124a991600484019160209091019061446d565b5060a082015180516124c591600584019160209091019061446d565b5060c09190910151600690910155601c5433907fb9508407a6eccb191d8da3286f4173697cf95604e9ea192fe5ab7c862b5221f69034601f612508600189614d1e565b8154811061251857612518614cf2565b90600052602060002090600702016005014260405161253a9493929190614df5565b60405180910390a233601f612550600186614d1e565b8154811061256057612560614cf2565b906000526020600020906007020160010160006101000a8154816001600160a01b0302191690836001600160a01b03160217905550505050565b6110ba33838361386d565b60606040518060400160405280601f81526020017f556e617574686f72697a65643a206e6f742061207374616b65686f6c646572008152506126077f000000000000000000000000000000000000000000000000000000000000000033611f87565b81906126265760405162461bcd60e51b8152600401610bcf9190614581565b50336000908152601360209081526040918290208054835181840281018401909452808452909183018282801561267c57602002820191906000526020600020905b815481526020019060010190808311612668575b505050505091505090565b60408051606081018252600080825260208201819052918101919091526040518060400160405280601f81526020017f556e617574686f72697a65643a205374616b65686f6c64657273206f6e6c79008152506127047f000000000000000000000000000000000000000000000000000000000000000033611f87565b81906127235760405162461bcd60e51b8152600401610bcf9190614581565b50600084815260126020526040902061273b8161393c565b831561277f5733600090815260166020526040902054612761906402540be40090614da3565b8160020160008282546127749190614d50565b909155506127b89050565b3360009081526016602052604090205461279f906402540be40090614da3565b8160030160008282546127b29190614d50565b90915550505b3360008181526013602090815260408083208554815460018181018455928652848620015585548452601483528184208251606081018452868152428186019081528b15158286019081528354808601855593885295909620905160039092020180546001600160a01b03929092166001600160a01b031990921691909117815593519084015590516002909201805492151560ff1990931692909217909155517ff4195914bd1a75ff318a3e75d2111a80cc0a9a8375aea50e407aec30082ea0e3906128cd907f00000000000000000000000000000000000000000000000000000000000000008152604060208201819052600d908201526c50524f504f53414c20564f544560981b606082015260800190565b60405180910390a25050604080516060810182523381524260208201529215159083015250919050565b60008082116129395760405162461bcd60e51b815260206004820152600e60248201526d457468657220746f6f206c6f772160901b6044820152606401610bcf565b601f612946600185614d1e565b8154811061295657612956614cf2565b60009182526020909120600790910201600101546001600160a01b031633146129ba5760405162461bcd60e51b81526020600482015260166024820152754f7065726174696f6e204e6f7420416c6c6f7765642160501b6044820152606401610bcf565b81601f6129c8600186614d1e565b815481106129d8576129d8614cf2565b600091825260209091206002600790920201015550600192915050565b6129ff338361336f565b612a1b5760405162461bcd60e51b8152600401610bcf90614ca1565b612a2784848484613a98565b50505050565b612a3561438d565b601260008381526020019081526020016000206040518061012001604052908160008201548152602001600182015481526020016002820154815260200160038201548152602001600482018054612a8c90614c66565b80601f0160208091040260200160405190810160405280929190818152602001828054612ab890614c66565b8015612b055780601f10612ada57610100808354040283529160200191612b05565b820191906000526020600020905b815481529060010190602001808311612ae857829003601f168201915b50505050508152602001600582018054612b1e90614c66565b80601f0160208091040260200160405190810160405280929190818152602001828054612b4a90614c66565b8015612b975780601f10612b6c57610100808354040283529160200191612b97565b820191906000526020600020905b815481529060010190602001808311612b7a57829003601f168201915b5050509183525050600682015460ff8116151560208301526001600160a01b036101009091048116604083015260079092015490911660609091015292915050565b6000818152600360205260409020546060906001600160a01b0316612c585760405162461bcd60e51b815260206004820152602f60248201527f4552433732314d657461646174613a2055524920717565727920666f72206e6f60448201526e3732bc34b9ba32b73a103a37b5b2b760891b6064820152608401610bcf565b6000612c6f60408051602081019091526000815290565b90506000815111612c8f5760405180602001604052806000815250612cba565b80612c9984613acb565b604051602001612caa929190614eb6565b6040516020818303038152906040525b9392505050565b6000828152600c6020526040902060010154612cdc81613611565b610d0583836136a1565b6000803411612d415760405162461bcd60e51b815260206004820152602160248201527f436f6e747269627574696e67207a65726f206973206e6f7420616c6c6f7765646044820152601760f91b6064820152608401610bcf565b601e601155612d707f000000000000000000000000000000000000000000000000000000000000000033611f87565b15612de05760115433600090815260156020526040902054612d929034614d50565b1115612de05760405162461bcd60e51b815260206004820152601860248201527f436f6e747269627574696f6e206e6f7420616c6c6f77656400000000000000006044820152606401610bcf565b612e0a7f000000000000000000000000000000000000000000000000000000000000000033611f87565b612f325733600090815260156020526040812054612e29903490614d50565b90507f00000000000000000000000000000000000000000000000000000000000000008110612edd57336000908152601660209081526040808320849055601590915281208054349290612e7e908490614d50565b90915550612eae90507f000000000000000000000000000000000000000000000000000000000000000033613b68565b612ed87f000000000000000000000000000000000000000000000000000000000000000033613b68565b612f2c565b3360009081526015602052604081208054349290612efc908490614d50565b90915550612f2c90507f000000000000000000000000000000000000000000000000000000000000000033613b68565b50612f7b565b3360009081526015602052604081208054349290612f51908490614d50565b90915550503360009081526016602052604081208054349290612f75908490614d50565b90915550505b34600e6000828254612f8d9190614d50565b909155505060405133907ff4195914bd1a75ff318a3e75d2111a80cc0a9a8375aea50e407aec30082ea0e390613013907f000000000000000000000000000000000000000000000000000000000000000081526040602082018190526015908201527410d3d39514925095551253d388149150d152559151605a1b606082015260800190565b60405180910390a250600e5490565b6060601f805480602002602001604051908101604052809291908181526020016000905b82821015610f7c5760008481526020908190206040805160e081018252600786029092018054835260018101546001600160a01b0316938301939093526002830154908201526003820180549192916060840191906130a490614c66565b80601f01602080910402602001604051908101604052809291908181526020018280546130d090614c66565b801561311d5780601f106130f25761010080835404028352916020019161311d565b820191906000526020600020905b81548152906001019060200180831161310057829003601f168201915b5050505050815260200160048201805461313690614c66565b80601f016020809104026020016040519081016040528092919081815260200182805461316290614c66565b80156131af5780601f10613184576101008083540402835291602001916131af565b820191906000526020600020905b81548152906001019060200180831161319257829003601f168201915b505050505081526020016005820180546131c890614c66565b80601f01602080910402602001604051908101604052809291908181526020018280546131f490614c66565b80156132415780601f1061321657610100808354040283529160200191613241565b820191906000526020600020905b81548152906001019060200180831161322457829003601f168201915b5050505050815260200160068201548152505081526020019060010190613046565b61326b613708565b6001600160a01b0381166132d05760405162461bcd60e51b815260206004820152602660248201527f4f776e61626c653a206e6577206f776e657220697320746865207a65726f206160448201526564647265737360d01b6064820152608401610bcf565b6132d981613762565b50565b60006001600160e01b03198216637965db0b60e01b1480610ac25750610ac282613b72565b600081815260056020526040902080546001600160a01b0319166001600160a01b0384169081179091558190613336826116a7565b6001600160a01b03167f8c5be1e5ebec7d5bd14f71427d1e84f3dd0314c0f7b2291e5b200ac8c7c3b92560405160405180910390a45050565b6000818152600360205260408120546001600160a01b03166133e85760405162461bcd60e51b815260206004820152602c60248201527f4552433732313a206f70657261746f7220717565727920666f72206e6f6e657860448201526b34b9ba32b73a103a37b5b2b760a11b6064820152608401610bcf565b60006133f3836116a7565b9050806001600160a01b0316846001600160a01b0316148061342e5750836001600160a01b031661342384610b5a565b6001600160a01b0316145b8061345e57506001600160a01b0380821660009081526006602090815260408083209388168352929052205460ff165b949350505050565b826001600160a01b0316613479826116a7565b6001600160a01b0316146134e15760405162461bcd60e51b815260206004820152602960248201527f4552433732313a207472616e73666572206f6620746f6b656e2074686174206960448201526839903737ba1037bbb760b91b6064820152608401610bcf565b6001600160a01b0382166135435760405162461bcd60e51b8152602060048201526024808201527f4552433732313a207472616e7366657220746f20746865207a65726f206164646044820152637265737360e01b6064820152608401610bcf565b61354e838383613b97565b613559600082613301565b6001600160a01b0383166000908152600460205260408120805460019290613582908490614d1e565b90915550506001600160a01b03821660009081526004602052604081208054600192906135b0908490614d50565b909155505060008181526003602052604080822080546001600160a01b0319166001600160a01b0386811691821790925591518493918716917fddf252ad1be2c89b69c2b068fc378daa952ba7f163c4a11628f55a4df523b3ef91a4505050565b6132d98133613c4f565b6136258282611f87565b6110ba576000828152600c602090815260408083206001600160a01b03851684529091529020805460ff1916600117905561365d3390565b6001600160a01b0316816001600160a01b0316837f2f8788117e7eff1d82e926ec794901d17c78024a50270940304540a733656f0d60405160405180910390a45050565b6136ab8282611f87565b156110ba576000828152600c602090815260408083206001600160a01b0385168085529252808320805460ff1916905551339285917ff6391f5c32d9c69d2a47ea670b442974b53935d1edc7fd64eb21e047a839171b9190a45050565b600b546001600160a01b03163314611c045760405162461bcd60e51b815260206004820181905260248201527f4f776e61626c653a2063616c6c6572206973206e6f7420746865206f776e65726044820152606401610bcf565b600b80546001600160a01b038381166001600160a01b0319831681179093556040519116919082907f8be0079c531659141344cd1fd0a4f28419497f9722a3daafe3b4186f6b6457e090600090a35050565b600080836001600160a01b03168360405160006040518083038185875af1925050503d8060008114613802576040519150601f19603f3d011682016040523d82523d6000602084013e613807565b606091505b50509050806138495760405162461bcd60e51b815260206004820152600e60248201526d14185e5b595b9d0819985a5b195960921b6044820152606401610bcf565b5060019392505050565b6110ba828260405180602001604052806000815250613ca8565b816001600160a01b0316836001600160a01b031614156138cf5760405162461bcd60e51b815260206004820152601960248201527f4552433732313a20617070726f766520746f2063616c6c6572000000000000006044820152606401610bcf565b6001600160a01b03838116600081815260066020908152604080832094871680845294825291829020805460ff191686151590811790915591519182527f17307eab39ab6107e8899845ad3d59bd9653f200f220920489ca2b5937696c31910160405180910390a3505050565b600681015460ff1680613953575042816001015411155b156139af5760068101805460ff1916600117905560405162461bcd60e51b815260206004820152601960248201527f50726f706f73616c206475726174696f6e2065787069726564000000000000006044820152606401610bcf565b33600090815260136020908152604080832080548251818502810185019093528083529192909190830182828015613a0657602002820191906000526020600020905b8154815260200190600101908083116139f2575b5050505050905060005b8151811015610d0557818181518110613a2b57613a2b614cf2565b602002602001015183600001541415613a865760405162461bcd60e51b815260206004820152601960248201527f446f75626c6520766f74696e67206e6f7420616c6c6f776564000000000000006044820152606401610bcf565b80613a9081614d35565b915050613a10565b613aa3848484613466565b613aaf84848484613cdb565b612a275760405162461bcd60e51b8152600401610bcf90614ee5565b60606000613ad883613dd9565b600101905060008167ffffffffffffffff811115613af857613af86149a1565b6040519080825280601f01601f191660200182016040528015613b22576020820181803683370190505b5090508181016020015b600019016f181899199a1a9b1b9c1cb0b131b232b360811b600a86061a8153600a8504945084613b5b57613b60565b613b2c565b509392505050565b6110ba828261361b565b60006001600160e01b0319821663780e9d6360e01b1480610ac25750610ac282613eb1565b6001600160a01b038316613bf257613bed81600980546000838152600a60205260408120829055600182018355919091527f6e1540171b6c0c960b71a7020d9f60077f6af931a8bbf590da0223dacf75c7af0155565b613c15565b816001600160a01b0316836001600160a01b031614613c1557613c158382613f01565b6001600160a01b038216613c2c57610d0581613f9e565b826001600160a01b0316826001600160a01b031614610d0557610d05828261404d565b613c598282611f87565b6110ba57613c6681614091565b613c718360206140a3565b604051602001613c82929190614f37565b60408051601f198184030181529082905262461bcd60e51b8252610bcf91600401614581565b613cb2838361423f565b613cbf6000848484613cdb565b610d055760405162461bcd60e51b8152600401610bcf90614ee5565b60006001600160a01b0384163b15613dce57604051630a85bd0160e11b81526001600160a01b0385169063150b7a0290613d1f903390899088908890600401614fac565b6020604051808303816000875af1925050508015613d5a575060408051601f3d908101601f19168201909252613d5791810190614fe9565b60015b613db4573d808015613d88576040519150601f19603f3d011682016040523d82523d6000602084013e613d8d565b606091505b508051613dac5760405162461bcd60e51b8152600401610bcf90614ee5565b805181602001fd5b6001600160e01b031916630a85bd0160e11b14905061345e565b506001949350505050565b60008072184f03e93ff9f4daa797ed6e38ed64bf6a1f0160401b8310613e185772184f03e93ff9f4daa797ed6e38ed64bf6a1f0160401b830492506040015b6d04ee2d6d415b85acef81000000008310613e44576d04ee2d6d415b85acef8100000000830492506020015b662386f26fc100008310613e6257662386f26fc10000830492506010015b6305f5e1008310613e7a576305f5e100830492506008015b6127108310613e8e57612710830492506004015b60648310613ea0576064830492506002015b600a8310610ac25760010192915050565b60006001600160e01b031982166380ac58cd60e01b1480613ee257506001600160e01b03198216635b5e139f60e01b145b80610ac257506301ffc9a760e01b6001600160e01b0319831614610ac2565b60006001613f0e84611b6b565b613f189190614d1e565b600083815260086020526040902054909150808214613f6b576001600160a01b03841660009081526007602090815260408083208584528252808320548484528184208190558352600890915290208190555b5060009182526008602090815260408084208490556001600160a01b039094168352600781528383209183525290812055565b600954600090613fb090600190614d1e565b6000838152600a602052604081205460098054939450909284908110613fd857613fd8614cf2565b906000526020600020015490508060098381548110613ff957613ff9614cf2565b6000918252602080832090910192909255828152600a9091526040808220849055858252812055600980548061403157614031615006565b6001900381819060005260206000200160009055905550505050565b600061405883611b6b565b6001600160a01b039093166000908152600760209081526040808320868452825280832085905593825260089052919091209190915550565b6060610ac26001600160a01b03831660145b606060006140b2836002614d84565b6140bd906002614d50565b67ffffffffffffffff8111156140d5576140d56149a1565b6040519080825280601f01601f1916602001820160405280156140ff576020820181803683370190505b509050600360fc1b8160008151811061411a5761411a614cf2565b60200101906001600160f81b031916908160001a905350600f60fb1b8160018151811061414957614149614cf2565b60200101906001600160f81b031916908160001a905350600061416d846002614d84565b614178906001614d50565b90505b60018111156141f0576f181899199a1a9b1b9c1cb0b131b232b360811b85600f16601081106141ac576141ac614cf2565b1a60f81b8282815181106141c2576141c2614cf2565b60200101906001600160f81b031916908160001a90535060049490941c936141e98161501c565b905061417b565b508315612cba5760405162461bcd60e51b815260206004820181905260248201527f537472696e67733a20686578206c656e67746820696e73756666696369656e746044820152606401610bcf565b6001600160a01b0382166142955760405162461bcd60e51b815260206004820181905260248201527f4552433732313a206d696e7420746f20746865207a65726f20616464726573736044820152606401610bcf565b6000818152600360205260409020546001600160a01b0316156142fa5760405162461bcd60e51b815260206004820152601c60248201527f4552433732313a20746f6b656e20616c7265616479206d696e746564000000006044820152606401610bcf565b61430660008383613b97565b6001600160a01b038216600090815260046020526040812080546001929061432f908490614d50565b909155505060008181526003602052604080822080546001600160a01b0319166001600160a01b03861690811790915590518392907fddf252ad1be2c89b69c2b068fc378daa952ba7f163c4a11628f55a4df523b3ef908290a45050565b60405180610120016040528060008152602001600081526020016000815260200160008152602001606081526020016060815260200160001515815260200160006001600160a01b0316815260200160006001600160a01b031681525090565b8280546143f990614c66565b90600052602060002090601f01602090048101928261441b5760008555614461565b82601f106144345782800160ff19823516178555614461565b82800160010185558215614461579182015b82811115614461578235825591602001919060010190614446565b506111369291506144e1565b82805461447990614c66565b90600052602060002090601f01602090048101928261449b5760008555614461565b82601f106144b457805160ff1916838001178555614461565b82800160010185558215614461579182015b828111156144615782518255916020019190600101906144c6565b5b8082111561113657600081556001016144e2565b6001600160e01b0319811681146132d957600080fd5b60006020828403121561451e57600080fd5b8135612cba816144f6565b60005b8381101561454457818101518382015260200161452c565b83811115612a275750506000910152565b6000815180845261456d816020860160208601614529565b601f01601f19169290920160200192915050565b602081526000612cba6020830184614555565b6000602082840312156145a657600080fd5b5035919050565b80356001600160a01b03811681146145c457600080fd5b919050565b600080604083850312156145dc57600080fd5b6145e5836145ad565b946020939093013593505050565b60006020828403121561460557600080fd5b612cba826145ad565b60008060006060848603121561462357600080fd5b61462c846145ad565b925061463a602085016145ad565b9150604084013590509250925092565b8051825260018060a01b036020820151166020830152604081015160408301526000606082015160e0606085015261468560e0850182614555565b90506080830151848203608086015261469e8282614555565b91505060a083015184820360a08601526146b88282614555565b91505060c083015160c08501528091505092915050565b6000602080830181845280855180835260408601915060408160051b870101925083870160005b8281101561472457603f1988860301845261471285835161464a565b945092850192908501906001016146f6565b5092979650505050505050565b6000806040838503121561474457600080fd5b82359150614754602084016145ad565b90509250929050565b602081526000612cba602083018461464a565b60006101208251845260208301516020850152604083015160408501526060830151606085015260808301518160808601526147ae82860182614555565b91505060a083015184820360a08601526147c88282614555565b91505060c08301516147de60c086018215159052565b5060e08301516147f960e08601826001600160a01b03169052565b50610100928301516001600160a01b03169390920192909252919050565b6000602080830181845280855180835260408601915060408160051b870101925083870160005b8281101561472457603f1988860301845261485a858351614770565b9450928501929085019060010161483e565b60008083601f84011261487e57600080fd5b50813567ffffffffffffffff81111561489657600080fd5b6020830191508360208285010111156148ae57600080fd5b9250929050565b600080600080604085870312156148cb57600080fd5b843567ffffffffffffffff808211156148e357600080fd5b6148ef8883890161486c565b9096509450602087013591508082111561490857600080fd5b506149158782880161486c565b95989497509550505050565b602081526000612cba6020830184614770565b6020808252825182820181905260009190848201906040850190845b818110156149955761498283855180516001600160a01b03168252602080820151908301526040908101511515910152565b9284019260609290920191600101614950565b50909695505050505050565b634e487b7160e01b600052604160045260246000fd5b600067ffffffffffffffff808411156149d2576149d26149a1565b604051601f8501601f19908116603f011681019082821181831017156149fa576149fa6149a1565b81604052809350858152868686011115614a1357600080fd5b858560208301376000602087830101525050509392505050565b600082601f830112614a3e57600080fd5b612cba838335602085016149b7565b60008060008060808587031215614a6357600080fd5b843567ffffffffffffffff80821115614a7b57600080fd5b614a8788838901614a2d565b95506020870135915080821115614a9d57600080fd5b614aa988838901614a2d565b94506040870135915080821115614abf57600080fd5b50614acc87828801614a2d565b949793965093946060013593505050565b803580151581146145c457600080fd5b60008060408385031215614b0057600080fd5b614b09836145ad565b915061475460208401614add565b6020808252825182820181905260009190848201906040850190845b8181101561499557835183529284019291840191600101614b33565b60008060408385031215614b6257600080fd5b8235915061475460208401614add565b81516001600160a01b031681526020808301519082015260408083015115159082015260608101610ac2565b60008060408385031215614bb157600080fd5b50508035926020909101359150565b60008060008060808587031215614bd657600080fd5b614bdf856145ad565b9350614bed602086016145ad565b925060408501359150606085013567ffffffffffffffff811115614c1057600080fd5b8501601f81018713614c2157600080fd5b614c30878235602084016149b7565b91505092959194509250565b60008060408385031215614c4f57600080fd5b614c58836145ad565b9150614754602084016145ad565b600181811c90821680614c7a57607f821691505b60208210811415614c9b57634e487b7160e01b600052602260045260246000fd5b50919050565b60208082526031908201527f4552433732313a207472616e736665722063616c6c6572206973206e6f74206f6040820152701ddb995c881b9bdc88185c1c1c9bdd9959607a1b606082015260800190565b634e487b7160e01b600052603260045260246000fd5b634e487b7160e01b600052601160045260246000fd5b600082821015614d3057614d30614d08565b500390565b6000600019821415614d4957614d49614d08565b5060010190565b60008219821115614d6357614d63614d08565b500190565b60008251614d7a818460208701614529565b9190910192915050565b6000816000190483118215151615614d9e57614d9e614d08565b500290565b600082614dc057634e487b7160e01b600052601260045260246000fd5b500490565b848152836020820152608060408201526000614de46080830185614555565b905082606083015295945050505050565b848152600060208581840152608060408401526000855481600182811c915080831680614e2357607f831692505b858310811415614e4157634e487b7160e01b85526022600452602485fd5b6080880183905260a08801818015614e605760018114614e7157614e9c565b60ff19861682528782019650614e9c565b60008c81526020902060005b86811015614e9657815484820152908501908901614e7d565b83019750505b505050505050809250505082606083015295945050505050565b60008351614ec8818460208801614529565b835190830190614edc818360208801614529565b01949350505050565b60208082526032908201527f4552433732313a207472616e7366657220746f206e6f6e20455243373231526560408201527131b2b4bb32b91034b6b83632b6b2b73a32b960711b606082015260800190565b7f416363657373436f6e74726f6c3a206163636f756e7420000000000000000000815260008351614f6f816017850160208801614529565b7001034b99036b4b9b9b4b733903937b6329607d1b6017918401918201528351614fa0816028840160208801614529565b01602801949350505050565b6001600160a01b0385811682528416602082015260408101839052608060608201819052600090614fdf90830184614555565b9695505050505050565b600060208284031215614ffb57600080fd5b8151612cba816144f6565b634e487b7160e01b600052603160045260246000fd5b60008161502b5761502b614d08565b50600019019056fe44656e6965643a2055736572206973206e6f74206120636f6e7472696275746f7250726f706f73616c204372656174696f6e20416c6c6f77656420666f72205374616b65686f6c64657273206f6e6c79a2646970667358221220b1ee86274bcbb1b0c1b05a50ac614934388fcb7c87901b9fc8cab8ed84459e7764736f6c634300080b0033",
  "immutableReferences": {
    "2014": [
      {
        "length": 32,
        "start": 2655
      },
      {
        "length": 32,
        "start": 4318
      },
      {
        "length": 32,
        "start": 6219
      },
      {
        "length": 32,
        "start": 11595
      },
      {
        "length": 32,
        "start": 11955
      },
      {
        "length": 32,
        "start": 12039
      }
    ],
    "2019": [
      {
        "length": 32,
        "start": 1367
      },
      {
        "length": 32,
        "start": 5956
      },
      {
        "length": 32,
        "start": 6928
      },
      {
        "length": 32,
        "start": 9698
      },
      {
        "length": 32,
        "start": 9951
      },
      {
        "length": 32,
        "start": 10369
      },
      {
        "length": 32,
        "start": 11749
      },
      {
        "length": 32,
        "start": 11913
      },
      {
        "length": 32,
        "start": 12223
      }
    ],
    "2022": [
      {
        "length": 32,
        "start": 11821
      }
    ],
    "2025": [
      {
        "length": 32,
        "start": 6131
      }
    ]
  },
  "source": "// SPDX-License-Identifier: MIT\npragma solidity >=0.7.0 <0.9.0;\n\nimport \"./ERC721.sol\";\nimport \"./ERC721Enumerable.sol\";\nimport \"@openzeppelin/contracts/access/Ownable.sol\";\nimport \"./DominonDao.sol\";\ncontract TimelessNFT is ERC721Enumerable, Ownable, DominionDAO {\n\nfunction supportsInterface(bytes4 interfaceId) public view override(ERC721Enumerable, AccessControl) returns (bool) {\n        return super.supportsInterface(interfaceId);\n    }\n\n    using Strings for uint256;\n    mapping(string => uint256) existingURIs;\n    mapping(uint256 => address) public holderOf;\n\n    address public artist;\n    uint256 public royalityFee;\n    uint256 public supply = 0;\n    uint256 public totalTx = 0;\n    uint256 public cost = 0.01 ether;\n\n    event Sale(\n        uint256 id,\n        address indexed owner,\n        uint256 cost,\n        string metadataURI,\n        uint256 timestamp\n    );\n\n    struct TransactionStruct {\n        uint256 id;\n        address owner;\n        uint256 cost;\n        string title;\n        string description;\n        string metadataURI;\n        uint256 timestamp;\n    }\n\n    TransactionStruct[] transactions;\n    TransactionStruct[] minted;\n\n    constructor(\n        string memory _name,\n        string memory _symbol,\n        uint256 _royalityFee,\n        address _artist\n    ) ERC721(_name, _symbol) {\n        royalityFee = _royalityFee;\n        artist = _artist;\n    }\n\n    function payToMint(\n        string memory title,\n        string memory description,\n        string memory metadataURI,\n        uint256 salesPrice\n    ) external payable {\n        require(msg.value >= cost, \"Ether too low for minting!\");\n        require(existingURIs[metadataURI] == 0, \"This NFT is already minted!\");\n        require(msg.sender != owner(), \"Sales not allowed!\");\n        \n\n        uint256 royality = (msg.value * royalityFee) / 100;\n        payTo(artist, royality);\n        payTo(owner(), (msg.value - royality));\n\n        supply++;\n\n        minted.push(\n            TransactionStruct(\n                supply,\n                msg.sender,\n                salesPrice,\n                title,\n                description,\n                metadataURI,\n                block.timestamp\n            )\n        );\n\n        emit Sale(\n            supply,\n            msg.sender,\n            msg.value,\n            metadataURI,\n            block.timestamp\n        );\n\n        _safeMint(msg.sender, supply);\n        existingURIs[metadataURI] = 1;\n        holderOf[supply] = msg.sender;\n    }\n\n    function payToBuy(uint256 id) external payable {\n        require(msg.value >= minted[id - 1].cost, \"Ether too low for purchase!\");\n        require(msg.sender != minted[id - 1].owner, \"Operation Not Allowed!\");\n        uint256 royality = (msg.value * royalityFee) / 100;\n        uint256 total=0;\n        for(uint i=0; i<minted.length; i++)\n        {\n            total += minted[i].cost;\n        }\n        mintedmax = ((75 * total)/100);\n        payTo(artist, royality);\n        payTo(minted[id - 1].owner, (msg.value - royality));\n\n        totalTx++;\n\n        transactions.push(\n            TransactionStruct(\n                totalTx,\n                msg.sender,\n                msg.value,\n                minted[id - 1].title,\n                minted[id - 1].description,\n                minted[id - 1].metadataURI,\n                block.timestamp\n            )\n        );\n\n        \n        emit Sale(\n            totalTx,\n            msg.sender,\n            msg.value,\n            minted[id - 1].metadataURI,\n            block.timestamp\n        );\n\n        minted[id - 1].owner = msg.sender;\n        // return daoBalance;\n    }\n\n    function changePrice(uint256 id, uint256 newPrice) external returns (bool) {\n        require(newPrice > 0 ether, \"Ether too low!\");\n        require(msg.sender == minted[id - 1].owner, \"Operation Not Allowed!\");\n\n        minted[id - 1].cost = newPrice;\n        return true;\n    }\n\n   \n    function getAllNFTs() external view returns (TransactionStruct[] memory) {\n        return minted;\n    }\n\n    function getNFT(uint256 id) external view returns (TransactionStruct memory) {\n        return minted[id - 1];\n    }\n\n    function getAllTransactions() external view returns (TransactionStruct[] memory) {\n        return transactions;\n    }\n}",
  "sourcePath": "/home/vivekpm/DAO_NFT/src/contracts/TimelessNFT.sol",
  "compiler": {
    "name": "solc",
    "version": "0.8.11+commit.d7f03943.Emscripten.clang"
  },
  "schemaVersion": "3.4.13",
  "updatedAt": "2023-05-20T07:17:47.883Z",
  "networkType": "ethereum",
  "devdoc": {
    "kind": "dev",
    "methods": {
      "approve(address,uint256)": {
        "details": "See {IERC721-approve}."
      },
      "balanceOf(address)": {
        "details": "See {IERC721-balanceOf}."
      },
      "getApproved(uint256)": {
        "details": "See {IERC721-getApproved}."
      },
      "getRoleAdmin(bytes32)": {
        "details": "Returns the admin role that controls `role`. See {grantRole} and {revokeRole}. To change a role's admin, use {_setRoleAdmin}."
      },
      "grantRole(bytes32,address)": {
        "details": "Grants `role` to `account`. If `account` had not been already granted `role`, emits a {RoleGranted} event. Requirements: - the caller must have ``role``'s admin role. May emit a {RoleGranted} event."
      },
      "hasRole(bytes32,address)": {
        "details": "Returns `true` if `account` has been granted `role`."
      },
      "isApprovedForAll(address,address)": {
        "details": "See {IERC721-isApprovedForAll}."
      },
      "name()": {
        "details": "See {IERC721Metadata-name}."
      },
      "owner()": {
        "details": "Returns the address of the current owner."
      },
      "ownerOf(uint256)": {
        "details": "See {IERC721-ownerOf}."
      },
      "renounceOwnership()": {
        "details": "Leaves the contract without owner. It will not be possible to call `onlyOwner` functions anymore. Can only be called by the current owner. NOTE: Renouncing ownership will leave the contract without an owner, thereby removing any functionality that is only available to the owner."
      },
      "renounceRole(bytes32,address)": {
        "details": "Revokes `role` from the calling account. Roles are often managed via {grantRole} and {revokeRole}: this function's purpose is to provide a mechanism for accounts to lose their privileges if they are compromised (such as when a trusted device is misplaced). If the calling account had been revoked `role`, emits a {RoleRevoked} event. Requirements: - the caller must be `account`. May emit a {RoleRevoked} event."
      },
      "revokeRole(bytes32,address)": {
        "details": "Revokes `role` from `account`. If `account` had been granted `role`, emits a {RoleRevoked} event. Requirements: - the caller must have ``role``'s admin role. May emit a {RoleRevoked} event."
      },
      "safeTransferFrom(address,address,uint256)": {
        "details": "See {IERC721-safeTransferFrom}."
      },
      "safeTransferFrom(address,address,uint256,bytes)": {
        "details": "See {IERC721-safeTransferFrom}."
      },
      "setApprovalForAll(address,bool)": {
        "details": "See {IERC721-setApprovalForAll}."
      },
      "symbol()": {
        "details": "See {IERC721Metadata-symbol}."
      },
      "tokenByIndex(uint256)": {
        "details": "See {IERC721Enumerable-tokenByIndex}."
      },
      "tokenOfOwnerByIndex(address,uint256)": {
        "details": "See {IERC721Enumerable-tokenOfOwnerByIndex}."
      },
      "tokenURI(uint256)": {
        "details": "See {IERC721Metadata-tokenURI}."
      },
      "totalSupply()": {
        "details": "See {IERC721Enumerable-totalSupply}."
      },
      "transferFrom(address,address,uint256)": {
        "details": "See {IERC721-transferFrom}."
      },
      "transferOwnership(address)": {
        "details": "Transfers ownership of the contract to a new account (`newOwner`). Can only be called by the current owner."
      }
    },
    "version": 1
  },
  "userdoc": {
    "kind": "user",
    "methods": {},
    "version": 1
  }
}